{
  "contractName": "AccessControl",
  "abi": [
    {
      "inputs": [
        {
          "internalType": "address",
          "name": "farmerAddress",
          "type": "address"
        }
      ],
      "name": "setFarmer",
      "outputs": [],
      "stateMutability": "nonpayable",
      "type": "function"
    },
    {
      "inputs": [
        {
          "internalType": "address",
          "name": "butcherAddress",
          "type": "address"
        }
      ],
      "name": "setButcher",
      "outputs": [],
      "stateMutability": "nonpayable",
      "type": "function"
    },
    {
      "inputs": [
        {
          "internalType": "address",
          "name": "consumerAddress",
          "type": "address"
        }
      ],
      "name": "setConsumer",
      "outputs": [],
      "stateMutability": "nonpayable",
      "type": "function"
    },
    {
      "inputs": [
        {
          "internalType": "address",
          "name": "user",
          "type": "address"
        }
      ],
      "name": "getUserType",
      "outputs": [
        {
          "internalType": "uint256",
          "name": "",
          "type": "uint256"
        }
      ],
      "stateMutability": "view",
      "type": "function"
    },
    {
      "inputs": [],
      "name": "getFarmer",
      "outputs": [
        {
          "internalType": "uint256",
          "name": "",
          "type": "uint256"
        }
      ],
      "stateMutability": "pure",
      "type": "function"
    },
    {
      "inputs": [],
      "name": "getButcher",
      "outputs": [
        {
          "internalType": "uint256",
          "name": "",
          "type": "uint256"
        }
      ],
      "stateMutability": "pure",
      "type": "function"
    },
    {
      "inputs": [],
      "name": "getConsumer",
      "outputs": [
        {
          "internalType": "uint256",
          "name": "",
          "type": "uint256"
        }
      ],
      "stateMutability": "pure",
      "type": "function"
    }
  ],
  "bytecode": "0x608060405234801561001057600080fd5b506103b9806100206000396000f3fe608060405234801561001057600080fd5b506004361061007d5760003560e01c80636c07681f1161005b5780636c07681f146101285780638b3f863f146101465780639a90b5681461019e578063e2ed781c146101bc5761007d565b80632388ec4c146100825780633e8d5562146100a057806363a579d5146100e4575b600080fd5b61008a610200565b6040518082815260200191505060405180910390f35b6100e2600480360360208110156100b657600080fd5b81019080803573ffffffffffffffffffffffffffffffffffffffff169060200190929190505050610213565b005b610126600480360360208110156100fa57600080fd5b81019080803573ffffffffffffffffffffffffffffffffffffffff169060200190929190505050610268565b005b6101306102bc565b6040518082815260200191505060405180910390f35b6101886004803603602081101561015c57600080fd5b81019080803573ffffffffffffffffffffffffffffffffffffffff1690602001909291905050506102cf565b6040518082815260200191505060405180910390f35b6101a661031a565b6040518082815260200191505060405180910390f35b6101fe600480360360208110156101d257600080fd5b81019080803573ffffffffffffffffffffffffffffffffffffffff16906020019092919050505061032e565b005b600080600281111561020e57fe5b905090565b6001600281111561022057fe5b6000808373ffffffffffffffffffffffffffffffffffffffff1673ffffffffffffffffffffffffffffffffffffffff1681526020019081526020016000206000018190555050565b60028081111561027457fe5b6000808373ffffffffffffffffffffffffffffffffffffffff1673ffffffffffffffffffffffffffffffffffffffff1681526020019081526020016000206000018190555050565b60006002808111156102ca57fe5b905090565b60008060008373ffffffffffffffffffffffffffffffffffffffff1673ffffffffffffffffffffffffffffffffffffffff168152602001908152602001600020600001549050919050565b60006001600281111561032957fe5b905090565b6000600281111561033b57fe5b6000808373ffffffffffffffffffffffffffffffffffffffff1673ffffffffffffffffffffffffffffffffffffffff168152602001908152602001600020600001819055505056fea2646970667358221220ac2c90fcfc0f3ae2826a6227ecdb257a05911f877d371f191c787cc58012c53964736f6c634300060c0033",
  "immutableReferences": {},
  "source": "pragma solidity >=0.6.0;\r\n\r\ncontract AccessControl {\r\n\r\n    enum Actor {Farmer, Butcher, Consumer}\r\n    struct User {\r\n        uint role;\r\n    }\r\n    mapping(address => User) users;\r\n\r\n    function setFarmer(address farmerAddress) public {\r\n        users[farmerAddress].role = uint(Actor.Farmer);\r\n    }\r\n\r\n    function setButcher(address butcherAddress) public {\r\n        users[butcherAddress].role = uint(Actor.Butcher);\r\n    }\r\n\r\n    function setConsumer(address consumerAddress) public {\r\n        users[consumerAddress].role = uint(Actor.Consumer);\r\n    }\r\n\r\n    function getUserType (address user) public view returns (uint) {\r\n        return uint(users[user].role);\r\n    }\r\n\r\n    function getFarmer() public pure returns(uint) {\r\n        return uint(Actor.Farmer);\r\n    }\r\n    function getButcher() public pure returns(uint) {\r\n        return uint(Actor.Butcher);\r\n    }\r\n    function getConsumer() public pure returns(uint) {\r\n        return uint(Actor.Consumer);\r\n    }\r\n}",
  "sourcePath": "C:\\Users\\samfa\\Documents\\BCNanodegree\\project3\\contracts\\AccessControl.sol",
  "compiler": {
    "name": "solc",
    "version": "0.6.12+commit.27d51765.Emscripten.clang"
  },
  "schemaVersion": "3.3.2",
  "updatedAt": "2020-12-15T01:38:00.942Z",
  "devdoc": {
    "kind": "dev",
    "methods": {},
    "version": 1
  },
  "userdoc": {
    "kind": "user",
    "methods": {},
    "version": 1
  }
}