{
  "contractName": "Base",
  "abi": [
    {
      "anonymous": false,
      "inputs": [
        {
          "indexed": false,
          "internalType": "uint256",
          "name": "cowId",
          "type": "uint256"
        }
      ],
      "name": "Butchered",
      "type": "event"
    },
    {
      "anonymous": false,
      "inputs": [
        {
          "indexed": false,
          "internalType": "string",
          "name": "message",
          "type": "string"
        }
      ],
      "name": "Eaten",
      "type": "event"
    },
    {
      "anonymous": false,
      "inputs": [
        {
          "indexed": false,
          "internalType": "uint256",
          "name": "cowId",
          "type": "uint256"
        }
      ],
      "name": "ForSale",
      "type": "event"
    },
    {
      "anonymous": false,
      "inputs": [
        {
          "indexed": false,
          "internalType": "uint256",
          "name": "cowId",
          "type": "uint256"
        }
      ],
      "name": "Raised",
      "type": "event"
    },
    {
      "anonymous": false,
      "inputs": [
        {
          "indexed": false,
          "internalType": "uint256",
          "name": "cowId",
          "type": "uint256"
        }
      ],
      "name": "Sold",
      "type": "event"
    },
    {
      "anonymous": false,
      "inputs": [
        {
          "indexed": false,
          "internalType": "uint256",
          "name": "cowId",
          "type": "uint256"
        }
      ],
      "name": "Transported",
      "type": "event"
    },
    {
      "inputs": [
        {
          "internalType": "uint256",
          "name": "",
          "type": "uint256"
        }
      ],
      "name": "cowIds",
      "outputs": [
        {
          "internalType": "uint256",
          "name": "",
          "type": "uint256"
        }
      ],
      "stateMutability": "view",
      "type": "function"
    },
    {
      "inputs": [
        {
          "internalType": "uint256",
          "name": "",
          "type": "uint256"
        }
      ],
      "name": "cows",
      "outputs": [
        {
          "internalType": "bool",
          "name": "isPaused",
          "type": "bool"
        },
        {
          "internalType": "bool",
          "name": "isMeat",
          "type": "bool"
        },
        {
          "internalType": "uint256",
          "name": "price",
          "type": "uint256"
        },
        {
          "internalType": "uint256",
          "name": "weight",
          "type": "uint256"
        },
        {
          "internalType": "uint256",
          "name": "state",
          "type": "uint256"
        },
        {
          "internalType": "uint256",
          "name": "cowId",
          "type": "uint256"
        },
        {
          "internalType": "address payable",
          "name": "farmer",
          "type": "address"
        },
        {
          "internalType": "address payable",
          "name": "butcher",
          "type": "address"
        },
        {
          "internalType": "address",
          "name": "currentLocation",
          "type": "address"
        }
      ],
      "stateMutability": "view",
      "type": "function"
    },
    {
      "inputs": [],
      "name": "getButcher",
      "outputs": [
        {
          "internalType": "uint256",
          "name": "",
          "type": "uint256"
        }
      ],
      "stateMutability": "pure",
      "type": "function"
    },
    {
      "inputs": [],
      "name": "getConsumer",
      "outputs": [
        {
          "internalType": "uint256",
          "name": "",
          "type": "uint256"
        }
      ],
      "stateMutability": "pure",
      "type": "function"
    },
    {
      "inputs": [],
      "name": "getFarmer",
      "outputs": [
        {
          "internalType": "uint256",
          "name": "",
          "type": "uint256"
        }
      ],
      "stateMutability": "pure",
      "type": "function"
    },
    {
      "inputs": [
        {
          "internalType": "address",
          "name": "user",
          "type": "address"
        }
      ],
      "name": "getUserType",
      "outputs": [
        {
          "internalType": "uint256",
          "name": "",
          "type": "uint256"
        }
      ],
      "stateMutability": "view",
      "type": "function"
    },
    {
      "inputs": [
        {
          "internalType": "address",
          "name": "butcherAddress",
          "type": "address"
        }
      ],
      "name": "setButcher",
      "outputs": [],
      "stateMutability": "nonpayable",
      "type": "function"
    },
    {
      "inputs": [
        {
          "internalType": "address",
          "name": "consumerAddress",
          "type": "address"
        }
      ],
      "name": "setConsumer",
      "outputs": [],
      "stateMutability": "nonpayable",
      "type": "function"
    },
    {
      "inputs": [
        {
          "internalType": "address",
          "name": "farmerAddress",
          "type": "address"
        }
      ],
      "name": "setFarmer",
      "outputs": [],
      "stateMutability": "nonpayable",
      "type": "function"
    },
    {
      "inputs": [
        {
          "internalType": "uint256",
          "name": "cowId",
          "type": "uint256"
        }
      ],
      "name": "getCowById",
      "outputs": [
        {
          "internalType": "bool",
          "name": "isPaused",
          "type": "bool"
        },
        {
          "internalType": "bool",
          "name": "isMeat",
          "type": "bool"
        },
        {
          "internalType": "uint256",
          "name": "price",
          "type": "uint256"
        },
        {
          "internalType": "uint256",
          "name": "weight",
          "type": "uint256"
        },
        {
          "internalType": "uint256",
          "name": "state",
          "type": "uint256"
        },
        {
          "internalType": "uint256",
          "name": "id",
          "type": "uint256"
        },
        {
          "internalType": "address payable",
          "name": "farmer",
          "type": "address"
        },
        {
          "internalType": "address payable",
          "name": "butcher",
          "type": "address"
        },
        {
          "internalType": "address",
          "name": "currentLocation",
          "type": "address"
        }
      ],
      "stateMutability": "nonpayable",
      "type": "function"
    },
    {
      "inputs": [],
      "name": "getSenderRole",
      "outputs": [
        {
          "internalType": "uint256",
          "name": "",
          "type": "uint256"
        }
      ],
      "stateMutability": "view",
      "type": "function"
    },
    {
      "inputs": [],
      "name": "getBalance",
      "outputs": [
        {
          "internalType": "uint256",
          "name": "",
          "type": "uint256"
        }
      ],
      "stateMutability": "view",
      "type": "function"
    },
    {
      "inputs": [
        {
          "internalType": "uint256",
          "name": "_cowId",
          "type": "uint256"
        }
      ],
      "name": "pushCowId",
      "outputs": [],
      "stateMutability": "nonpayable",
      "type": "function"
    },
    {
      "inputs": [],
      "name": "getTransported",
      "outputs": [
        {
          "internalType": "uint256",
          "name": "",
          "type": "uint256"
        }
      ],
      "stateMutability": "pure",
      "type": "function"
    },
    {
      "inputs": [],
      "name": "getButchered",
      "outputs": [
        {
          "internalType": "uint256",
          "name": "",
          "type": "uint256"
        }
      ],
      "stateMutability": "pure",
      "type": "function"
    },
    {
      "inputs": [],
      "name": "getTransportConfirmed",
      "outputs": [
        {
          "internalType": "uint256",
          "name": "",
          "type": "uint256"
        }
      ],
      "stateMutability": "pure",
      "type": "function"
    },
    {
      "inputs": [],
      "name": "getSold",
      "outputs": [
        {
          "internalType": "uint256",
          "name": "",
          "type": "uint256"
        }
      ],
      "stateMutability": "pure",
      "type": "function"
    },
    {
      "inputs": [],
      "name": "getForSale",
      "outputs": [
        {
          "internalType": "uint256",
          "name": "",
          "type": "uint256"
        }
      ],
      "stateMutability": "pure",
      "type": "function"
    },
    {
      "inputs": [
        {
          "internalType": "uint256",
          "name": "cowId",
          "type": "uint256"
        },
        {
          "internalType": "uint256",
          "name": "state",
          "type": "uint256"
        }
      ],
      "name": "setCowState",
      "outputs": [],
      "stateMutability": "nonpayable",
      "type": "function"
    },
    {
      "inputs": [
        {
          "internalType": "uint256",
          "name": "cowId",
          "type": "uint256"
        }
      ],
      "name": "getCowState",
      "outputs": [
        {
          "internalType": "uint256",
          "name": "",
          "type": "uint256"
        }
      ],
      "stateMutability": "view",
      "type": "function"
    },
    {
      "inputs": [
        {
          "internalType": "uint256",
          "name": "cowId",
          "type": "uint256"
        }
      ],
      "name": "getCowFarmerAddress",
      "outputs": [
        {
          "internalType": "address",
          "name": "",
          "type": "address"
        }
      ],
      "stateMutability": "view",
      "type": "function"
    },
    {
      "inputs": [
        {
          "internalType": "uint256",
          "name": "cowId",
          "type": "uint256"
        }
      ],
      "name": "getCowButcherAddress",
      "outputs": [
        {
          "internalType": "address",
          "name": "",
          "type": "address"
        }
      ],
      "stateMutability": "view",
      "type": "function"
    },
    {
      "inputs": [
        {
          "internalType": "uint256",
          "name": "cowId",
          "type": "uint256"
        }
      ],
      "name": "getCowIsPaused",
      "outputs": [
        {
          "internalType": "bool",
          "name": "",
          "type": "bool"
        }
      ],
      "stateMutability": "view",
      "type": "function"
    },
    {
      "inputs": [
        {
          "internalType": "uint256",
          "name": "cowId",
          "type": "uint256"
        }
      ],
      "name": "getCowIsMeat",
      "outputs": [
        {
          "internalType": "bool",
          "name": "",
          "type": "bool"
        }
      ],
      "stateMutability": "view",
      "type": "function"
    },
    {
      "inputs": [
        {
          "internalType": "uint256",
          "name": "cowId",
          "type": "uint256"
        }
      ],
      "name": "setCowIsMeat",
      "outputs": [],
      "stateMutability": "nonpayable",
      "type": "function"
    },
    {
      "inputs": [
        {
          "internalType": "uint256",
          "name": "cowId",
          "type": "uint256"
        }
      ],
      "name": "getCowPrice",
      "outputs": [
        {
          "internalType": "uint256",
          "name": "",
          "type": "uint256"
        }
      ],
      "stateMutability": "view",
      "type": "function"
    },
    {
      "inputs": [
        {
          "internalType": "uint256",
          "name": "cowId",
          "type": "uint256"
        },
        {
          "internalType": "uint256",
          "name": "price",
          "type": "uint256"
        }
      ],
      "name": "setCowPrice",
      "outputs": [],
      "stateMutability": "nonpayable",
      "type": "function"
    },
    {
      "inputs": [
        {
          "internalType": "uint256",
          "name": "cowId",
          "type": "uint256"
        }
      ],
      "name": "setCowButcher",
      "outputs": [],
      "stateMutability": "nonpayable",
      "type": "function"
    },
    {
      "inputs": [
        {
          "internalType": "uint256",
          "name": "cowId",
          "type": "uint256"
        }
      ],
      "name": "getCowButcher",
      "outputs": [
        {
          "internalType": "address",
          "name": "",
          "type": "address"
        }
      ],
      "stateMutability": "view",
      "type": "function"
    },
    {
      "inputs": [
        {
          "internalType": "uint256",
          "name": "cowId",
          "type": "uint256"
        }
      ],
      "name": "getCowLocation",
      "outputs": [
        {
          "internalType": "address",
          "name": "",
          "type": "address"
        }
      ],
      "stateMutability": "view",
      "type": "function"
    },
    {
      "inputs": [
        {
          "internalType": "uint256",
          "name": "cowId",
          "type": "uint256"
        },
        {
          "internalType": "uint256",
          "name": "weight",
          "type": "uint256"
        }
      ],
      "name": "setCowWeight",
      "outputs": [],
      "stateMutability": "nonpayable",
      "type": "function"
    },
    {
      "inputs": [
        {
          "internalType": "uint256",
          "name": "cowId",
          "type": "uint256"
        }
      ],
      "name": "getCowWeight",
      "outputs": [
        {
          "internalType": "uint256",
          "name": "",
          "type": "uint256"
        }
      ],
      "stateMutability": "view",
      "type": "function"
    },
    {
      "inputs": [
        {
          "internalType": "uint256",
          "name": "cowId",
          "type": "uint256"
        }
      ],
      "name": "getCowId",
      "outputs": [
        {
          "internalType": "uint256",
          "name": "",
          "type": "uint256"
        }
      ],
      "stateMutability": "view",
      "type": "function"
    }
  ],
  "bytecode": "0x608060405234801561001057600080fd5b5061126c806100206000396000f3fe608060405234801561001057600080fd5b50600436106101fb5760003560e01c80637e82e70a1161011a578063baed3290116100ad578063f74bb9141161007c578063f74bb91414610922578063fb5f39e214610964578063fcd2cf76146109a6578063fd1d9092146109c4578063fe3c7d3e146109f2576101fb565b8063baed329014610838578063db7ef4c81461087c578063e2ed781c146108c0578063efbfdd4514610904576101fb565b80638f282b87116100e95780638f282b87146107765780639a90b568146107945780639dfda794146107b2578063a925c065146107e0576101fb565b80637e82e70a14610686578063804c2cf8146106be5780638b3f863f146106dc5780638d6fe2bf14610734576101fb565b80633b928b7b116101925780635f5d6e63116101615780635f5d6e63146105aa57806363a579d5146105e25780636c07681f14610626578063748a070e14610644576101fb565b80633b928b7b146104205780633e4ff056146104e05780633e8d5562146105385780634a4093591461057c576101fb565b80632388ec4c116101ce5780632388ec4c146102cc5780632cd6d05b146102ea5780633a88162e146103aa5780633b573e21146103c8576101fb565b806302d70d5e146102005780630a5ba91b146102385780630d5fe8d01461025657806312065fe0146102ae575b600080fd5b6102366004803603604081101561021657600080fd5b810190808035906020019092919080359060200190929190505050610a34565b005b610240610a53565b6040518082815260200191505060405180910390f35b6102826004803603602081101561026c57600080fd5b8101908080359060200190929190505050610a6c565b604051808273ffffffffffffffffffffffffffffffffffffffff16815260200191505060405180910390f35b6102b6610aac565b6040518082815260200191505060405180910390f35b6102d4610acb565b6040518082815260200191505060405180910390f35b6103166004803603602081101561030057600080fd5b8101908080359060200190929190505050610ade565b604051808a1515815260200189151581526020018881526020018781526020018681526020018581526020018473ffffffffffffffffffffffffffffffffffffffff1681526020018373ffffffffffffffffffffffffffffffffffffffff1681526020018273ffffffffffffffffffffffffffffffffffffffff168152602001995050505050505050505060405180910390f35b6103b2610c3e565b6040518082815260200191505060405180910390f35b6103f4600480360360208110156103de57600080fd5b8101908080359060200190929190505050610c87565b604051808273ffffffffffffffffffffffffffffffffffffffff16815260200191505060405180910390f35b61044c6004803603602081101561043657600080fd5b8101908080359060200190929190505050610cc7565b604051808a1515815260200189151581526020018881526020018781526020018681526020018581526020018473ffffffffffffffffffffffffffffffffffffffff1681526020018373ffffffffffffffffffffffffffffffffffffffff1681526020018273ffffffffffffffffffffffffffffffffffffffff168152602001995050505050505050505060405180910390f35b61050c600480360360208110156104f657600080fd5b8101908080359060200190929190505050610d8f565b604051808273ffffffffffffffffffffffffffffffffffffffff16815260200191505060405180910390f35b61057a6004803603602081101561054e57600080fd5b81019080803573ffffffffffffffffffffffffffffffffffffffff169060200190929190505050610dcf565b005b6105a86004803603602081101561059257600080fd5b8101908080359060200190929190505050610e24565b005b6105e0600480360360408110156105c057600080fd5b810190808035906020019092919080359060200190929190505050610eba565b005b610624600480360360208110156105f857600080fd5b81019080803573ffffffffffffffffffffffffffffffffffffffff169060200190929190505050610ed9565b005b61062e610f2d565b6040518082815260200191505060405180910390f35b6106706004803603602081101561065a57600080fd5b8101908080359060200190929190505050610f40565b6040518082815260200191505060405180910390f35b6106bc6004803603604081101561069c57600080fd5b810190808035906020019092919080359060200190929190505050610f61565b005b6106c6610f80565b6040518082815260200191505060405180910390f35b61071e600480360360208110156106f257600080fd5b81019080803573ffffffffffffffffffffffffffffffffffffffff169060200190929190505050610f99565b6040518082815260200191505060405180910390f35b6107606004803603602081101561074a57600080fd5b8101908080359060200190929190505050610fe4565b6040518082815260200191505060405180910390f35b61077e611004565b6040518082815260200191505060405180910390f35b61079c61101d565b6040518082815260200191505060405180910390f35b6107de600480360360208110156107c857600080fd5b8101908080359060200190929190505050611031565b005b61080c600480360360208110156107f657600080fd5b8101908080359060200190929190505050611089565b604051808273ffffffffffffffffffffffffffffffffffffffff16815260200191505060405180910390f35b6108646004803603602081101561084e57600080fd5b81019080803590602001909291905050506110c9565b60405180821515815260200191505060405180910390f35b6108a86004803603602081101561089257600080fd5b81019080803590602001909291905050506110f6565b60405180821515815260200191505060405180910390f35b610902600480360360208110156108d657600080fd5b81019080803573ffffffffffffffffffffffffffffffffffffffff169060200190929190505050611123565b005b61090c611178565b6040518082815260200191505060405180910390f35b61094e6004803603602081101561093857600080fd5b8101908080359060200190929190505050611191565b6040518082815260200191505060405180910390f35b6109906004803603602081101561097a57600080fd5b81019080803590602001909291905050506111b1565b6040518082815260200191505060405180910390f35b6109ae6111d1565b6040518082815260200191505060405180910390f35b6109f0600480360360208110156109da57600080fd5b81019080803590602001909291905050506111ea565b005b610a1e60048036036020811015610a0857600080fd5b8101908080359060200190929190505050611216565b6040518082815260200191505060405180910390f35b8060016000848152602001908152602001600020600301819055505050565b60008060036006811115610a6357fe5b90508091505090565b60006001600083815260200190815260200160002060050160009054906101000a900473ffffffffffffffffffffffffffffffffffffffff169050919050565b60003373ffffffffffffffffffffffffffffffffffffffff1631905090565b6000806002811115610ad957fe5b905090565b6000806000806000806000806000899350600160008b815260200190815260200160002060000160009054906101000a900460ff169850600160008b815260200190815260200160002060000160019054906101000a900460ff169750600160008b8152602001908152602001600020600101549650600160008b8152602001908152602001600020600201549550600160008b8152602001908152602001600020600301549450600160008b815260200190815260200160002060050160009054906101000a900473ffffffffffffffffffffffffffffffffffffffff169250600160008b815260200190815260200160002060060160009054906101000a900473ffffffffffffffffffffffffffffffffffffffff169150600160008b815260200190815260200160002060080160009054906101000a900473ffffffffffffffffffffffffffffffffffffffff1690509193959799909294969850565b60008060003373ffffffffffffffffffffffffffffffffffffffff1673ffffffffffffffffffffffffffffffffffffffff16815260200190815260200160002060000154905090565b60006001600083815260200190815260200160002060060160009054906101000a900473ffffffffffffffffffffffffffffffffffffffff169050919050565b60016020528060005260406000206000915090508060000160009054906101000a900460ff16908060000160019054906101000a900460ff16908060010154908060020154908060030154908060040154908060050160009054906101000a900473ffffffffffffffffffffffffffffffffffffffff16908060060160009054906101000a900473ffffffffffffffffffffffffffffffffffffffff16908060080160009054906101000a900473ffffffffffffffffffffffffffffffffffffffff16905089565b60006001600083815260200190815260200160002060080160009054906101000a900473ffffffffffffffffffffffffffffffffffffffff169050919050565b60016002811115610ddc57fe5b6000808373ffffffffffffffffffffffffffffffffffffffff1673ffffffffffffffffffffffffffffffffffffffff1681526020019081526020016000206000018190555050565b600115156001600083815260200190815260200160002060000160019054906101000a900460ff1615151415610e885760006001600083815260200190815260200160002060000160016101000a81548160ff021916908315150217905550610eb7565b600180600083815260200190815260200160002060000160016101000a81548160ff0219169083151502179055505b50565b8060016000848152602001908152602001600020600201819055505050565b600280811115610ee557fe5b6000808373ffffffffffffffffffffffffffffffffffffffff1673ffffffffffffffffffffffffffffffffffffffff1681526020019081526020016000206000018190555050565b6000600280811115610f3b57fe5b905090565b60028181548110610f4d57fe5b906000526020600020016000915090505481565b8060016000848152602001908152602001600020600101819055505050565b60008060016006811115610f9057fe5b90508091505090565b60008060008373ffffffffffffffffffffffffffffffffffffffff1673ffffffffffffffffffffffffffffffffffffffff168152602001908152602001600020600001549050919050565b600060016000838152602001908152602001600020600301549050919050565b6000806002600681111561101457fe5b90508091505090565b60006001600281111561102c57fe5b905090565b336001600083815260200190815260200160002060060160006101000a81548173ffffffffffffffffffffffffffffffffffffffff021916908373ffffffffffffffffffffffffffffffffffffffff16021790555050565b60006001600083815260200190815260200160002060060160009054906101000a900473ffffffffffffffffffffffffffffffffffffffff169050919050565b60006001600083815260200190815260200160002060000160009054906101000a900460ff169050919050565b60006001600083815260200190815260200160002060000160019054906101000a900460ff169050919050565b6000600281111561113057fe5b6000808373ffffffffffffffffffffffffffffffffffffffff1673ffffffffffffffffffffffffffffffffffffffff1681526020019081526020016000206000018190555050565b6000806005600681111561118857fe5b90508091505090565b600060016000838152602001908152602001600020600201549050919050565b600060016000838152602001908152602001600020600401549050919050565b600080600460068111156111e157fe5b90508091505090565b600281908060018154018082558091505060019003906000526020600020016000909190919091505550565b60006001600083815260200190815260200160002060010154905091905056fea264697066735822122031cdcc81cc953fb71f8555b3ecc7cfb770e18a325ab0cf64182fe1185510d87964736f6c634300060c0033",
  "immutableReferences": {},
  "source": "pragma solidity >=0.6.0;\r\n\r\nimport './AccessControl.sol';\r\n\r\ncontract Base is AccessControl {\r\n    //Fields\r\n    struct Cow {\r\n        bool isPaused;\r\n        bool isMeat;\r\n        uint256 price;\r\n        uint weight;\r\n        uint state;\r\n        uint256 cowId;\r\n        address payable farmer;\r\n        address payable butcher;\r\n        address[] consumers;\r\n        address currentLocation;\r\n    }\r\n    enum State {Raised, ForSale, Sold, Transported, TransportConfirmed, Butchered, Eaten} \r\n    mapping(uint256 => Cow) public cows;\r\n    uint256[] public cowIds;\r\n\r\n    function getCowById(uint256 cowId) public returns(bool isPaused,\r\n        bool isMeat,\r\n        uint256 price,\r\n        uint weight,\r\n        uint state,\r\n        uint256 id,\r\n        address payable farmer,\r\n        address payable butcher,\r\n        address currentLocation) {\r\n        \r\n        id = cowId;\r\n        isPaused = cows[cowId].isPaused;\r\n        isMeat = cows[cowId].isMeat;\r\n        price = cows[cowId].price;\r\n        weight = cows[cowId].weight;\r\n        state = cows[cowId].state;\r\n        farmer = cows[cowId].farmer;\r\n        butcher = cows[cowId].butcher;\r\n        currentLocation = cows[cowId].currentLocation;\r\n    }\r\n\r\n    function getSenderRole() public view returns (uint) {\r\n         return users[msg.sender].role;\r\n    }\r\n\r\n    function getBalance() public view returns (uint256) {\r\n        return msg.sender.balance;\r\n    }\r\n\r\n    function pushCowId(uint256 _cowId) public {\r\n        cowIds.push(_cowId);\r\n    }\r\n\r\n    function getTransported() public pure returns(uint) {\r\n        uint res = uint(State.Transported);\r\n        return res;\r\n    }\r\n\r\n    function getButchered() public pure returns(uint) {\r\n        uint res = uint(State.Butchered);\r\n        return res;\r\n    }\r\n\r\n    function getTransportConfirmed() public pure returns(uint) {\r\n        uint res = uint(State.TransportConfirmed);\r\n        return res;\r\n    }\r\n\r\n    function getSold() public pure returns(uint) {\r\n        uint res = uint(State.Sold);\r\n        return res;\r\n    }\r\n\r\n    function getForSale() public pure returns(uint) {\r\n        uint res = uint(State.ForSale);\r\n        return res;\r\n    }\r\n\r\n    function setCowState (uint256 cowId, uint state) public {\r\n        cows[cowId].state = state;\r\n    }\r\n\r\n    function getCowState (uint256 cowId) public view returns (uint) {\r\n        return cows[cowId].state;\r\n    }\r\n\r\n    function getCowFarmerAddress (uint256 cowId) public view returns (address) {\r\n        return cows[cowId].farmer;\r\n    }\r\n\r\n    function getCowButcherAddress (uint256 cowId) public view returns (address) {\r\n        return cows[cowId].butcher;\r\n    }\r\n\r\n    function getCowIsPaused (uint256 cowId) public view returns (bool) {\r\n        return cows[cowId].isPaused;\r\n    }\r\n\r\n     function getCowIsMeat (uint256 cowId) public view returns (bool) {\r\n         return cows[cowId].isMeat;\r\n     }\r\n    \r\n    function setCowIsMeat (uint256 cowId) public {\r\n        if(cows[cowId].isMeat == true) {\r\n            cows[cowId].isMeat = false;\r\n        } else {\r\n            cows[cowId].isMeat = true;\r\n        }\r\n    }\r\n\r\n    function getCowPrice(uint256 cowId) public view returns (uint256) {\r\n       return cows[cowId].price;\r\n    }\r\n\r\n    function setCowPrice(uint256 cowId, uint256 price) public {\r\n        cows[cowId].price = price;\r\n    }\r\n\r\n    \r\n    function setCowButcher(uint256 cowId) public {\r\n        cows[cowId].butcher = msg.sender;\r\n    }\r\n\r\n    function getCowButcher(uint256 cowId) view public returns(address) {\r\n        return cows[cowId].butcher;\r\n    }\r\n\r\n    function getCowLocation(uint256 cowId) view public returns(address) {\r\n        return cows[cowId].currentLocation;\r\n    }\r\n\r\n    function setCowWeight(uint256 cowId, uint256 weight) public {\r\n        cows[cowId].weight = weight;\r\n    }\r\n\r\n    function getCowWeight(uint256 cowId) public view returns(uint256) {\r\n        return cows[cowId].weight;\r\n    }\r\n\r\n    function getCowId(uint256 cowId) public view returns(uint256) {\r\n        return cows[cowId].cowId;\r\n    }\r\n\r\n    //Modifiers\r\n    //only farmer can call\r\n    modifier onlyFarmer() {\r\n        require(users[msg.sender].role == uint(Actor.Farmer));\r\n        _;\r\n    }\r\n    //only butcher can call\r\n    modifier onlyButcher() {\r\n        require(users[msg.sender].role == uint(Actor.Butcher));\r\n        _;\r\n    }\r\n    //only consumer can call\r\n    modifier onlyConsumer() {\r\n        require(users[msg.sender].role == uint(Actor.Consumer));\r\n        _;\r\n    }\r\n\r\n    modifier enoughButcherFunds(uint256 cowId) {\r\n        require(msg.sender.balance >= (cows[cowId].price * cows[cowId].weight));\r\n        _;\r\n    }\r\n\r\n    modifier enoughConsumerFunds(uint256 cowId, uint256 weightPurchased) {\r\n        require(msg.sender.balance >= (cows[cowId].price * weightPurchased));\r\n        _;\r\n    }\r\n\r\n    //Events:\r\n    event Raised(uint256 cowId);\r\n    event ForSale(uint256 cowId);\r\n    event Sold(uint256 cowId);\r\n    event Transported(uint256 cowId);\r\n    event Butchered(uint256 cowId);\r\n    event Eaten(string message);\r\n}",
  "sourcePath": "C:\\Users\\samfa\\Documents\\BCNanodegree\\project3\\contracts\\Base.sol",
  "compiler": {
    "name": "solc",
    "version": "0.6.12+commit.27d51765.Emscripten.clang"
  },
  "schemaVersion": "3.3.2",
  "updatedAt": "2020-12-15T01:38:00.957Z",
  "devdoc": {
    "kind": "dev",
    "methods": {},
    "version": 1
  },
  "userdoc": {
    "kind": "user",
    "methods": {},
    "version": 1
  }
}