{
  "contractName": "Base",
  "abi": [
    {
      "anonymous": false,
      "inputs": [
        {
          "indexed": false,
          "internalType": "uint256",
          "name": "cowId",
          "type": "uint256"
        }
      ],
      "name": "Butchered",
      "type": "event"
    },
    {
      "anonymous": false,
      "inputs": [
        {
          "indexed": false,
          "internalType": "string",
          "name": "message",
          "type": "string"
        }
      ],
      "name": "Eaten",
      "type": "event"
    },
    {
      "anonymous": false,
      "inputs": [
        {
          "indexed": false,
          "internalType": "uint256",
          "name": "cowId",
          "type": "uint256"
        }
      ],
      "name": "ForSale",
      "type": "event"
    },
    {
      "anonymous": false,
      "inputs": [
        {
          "indexed": false,
          "internalType": "uint256",
          "name": "cowId",
          "type": "uint256"
        }
      ],
      "name": "Raised",
      "type": "event"
    },
    {
      "anonymous": false,
      "inputs": [
        {
          "indexed": false,
          "internalType": "uint256",
          "name": "cowId",
          "type": "uint256"
        }
      ],
      "name": "Sold",
      "type": "event"
    },
    {
      "anonymous": false,
      "inputs": [
        {
          "indexed": false,
          "internalType": "uint256",
          "name": "cowId",
          "type": "uint256"
        }
      ],
      "name": "Transported",
      "type": "event"
    },
    {
      "inputs": [
        {
          "internalType": "address",
          "name": "butcherAddress",
          "type": "address"
        }
      ],
      "name": "setButcher",
      "outputs": [],
      "stateMutability": "nonpayable",
      "type": "function"
    },
    {
      "inputs": [
        {
          "internalType": "address",
          "name": "consumerAddress",
          "type": "address"
        }
      ],
      "name": "setConsumer",
      "outputs": [],
      "stateMutability": "nonpayable",
      "type": "function"
    },
    {
      "inputs": [
        {
          "internalType": "address",
          "name": "farmerAddress",
          "type": "address"
        }
      ],
      "name": "setFarmer",
      "outputs": [],
      "stateMutability": "nonpayable",
      "type": "function"
    }
  ],
  "bytecode": "0x608060405234801561001057600080fd5b50610271806100206000396000f3fe608060405234801561001057600080fd5b50600436106100415760003560e01c80633e8d55621461004657806363a579d51461008a578063e2ed781c146100ce575b600080fd5b6100886004803603602081101561005c57600080fd5b81019080803573ffffffffffffffffffffffffffffffffffffffff169060200190929190505050610112565b005b6100cc600480360360208110156100a057600080fd5b81019080803573ffffffffffffffffffffffffffffffffffffffff169060200190929190505050610175565b005b610110600480360360208110156100e457600080fd5b81019080803573ffffffffffffffffffffffffffffffffffffffff1690602001909291905050506101d8565b005b60016000808373ffffffffffffffffffffffffffffffffffffffff1673ffffffffffffffffffffffffffffffffffffffff16815260200190815260200160002060006101000a81548160ff0219169083600281111561016d57fe5b021790555050565b60026000808373ffffffffffffffffffffffffffffffffffffffff1673ffffffffffffffffffffffffffffffffffffffff16815260200190815260200160002060006101000a81548160ff021916908360028111156101d057fe5b021790555050565b60008060008373ffffffffffffffffffffffffffffffffffffffff1673ffffffffffffffffffffffffffffffffffffffff16815260200190815260200160002060006101000a81548160ff0219169083600281111561023357fe5b02179055505056fea26469706673582212208a7c5db83a0fb0ee9a1fffcd79267c0d2bc1a5d402a3c810528abf48d8e113ee64736f6c634300060c0033",
  "immutableReferences": {},
  "source": "pragma solidity >=0.6.0;\r\n\r\nimport './AccessControl.sol';\r\n\r\ncontract Base is AccessControl {\r\n    //Fields\r\n    struct Cow {\r\n        bool isMeat;\r\n        uint price;\r\n        uint weight;\r\n        State state;\r\n        uint256 cowId;\r\n        address farmer;\r\n        address butcher;\r\n        address[] consumers;\r\n        address currentLocation;\r\n    }\r\n    enum State {Raised, ForSale, Sold, Transported, TransportConfirmed, Butchered, Eaten} \r\n    mapping(uint256 => Cow) cows;\r\n\r\n    //Modifiers\r\n    //only farmer can call\r\n    modifier onlyFarmer() {\r\n        require(users[msg.sender] == Actor.Farmer);\r\n        _;\r\n    }\r\n    //only butcher can call\r\n    modifier onlyButcher() {\r\n        require(users[msg.sender] == Actor.Butcher);\r\n        _;\r\n    }\r\n    //only consumer can call\r\n    modifier onlyConsumer() {\r\n        require(users[msg.sender] == Actor.Consumer);\r\n        _;\r\n    }\r\n\r\n    //Events:\r\n    event Raised(uint256 cowId);\r\n    event ForSale(uint256 cowId);\r\n    event Sold(uint256 cowId);\r\n    event Transported(uint256 cowId);\r\n    event Butchered(uint256 cowId);\r\n    event Eaten(string message);\r\n}",
  "sourcePath": "C:\\Users\\samfa\\Documents\\BCNanodegree\\project3\\contracts\\Base.sol",
  "compiler": {
    "name": "solc",
    "version": "0.6.12+commit.27d51765.Emscripten.clang"
  },
  "schemaVersion": "3.3.2",
  "updatedAt": "2020-12-01T23:31:25.357Z",
  "devdoc": {
    "kind": "dev",
    "methods": {},
    "version": 1
  },
  "userdoc": {
    "kind": "user",
    "methods": {},
    "version": 1
  }
}