{
  "contractName": "Butcher",
  "abi": [
    {
      "inputs": [
        {
          "internalType": "uint256",
          "name": "cowId",
          "type": "uint256"
        }
      ],
      "name": "buyCow",
      "outputs": [],
      "stateMutability": "nonpayable",
      "type": "function"
    },
    {
      "inputs": [
        {
          "internalType": "uint256",
          "name": "",
          "type": "uint256"
        }
      ],
      "name": "confirmTransportation",
      "outputs": [
        {
          "internalType": "bool",
          "name": "success",
          "type": "bool"
        }
      ],
      "stateMutability": "payable",
      "type": "function"
    },
    {
      "inputs": [
        {
          "internalType": "uint256",
          "name": "cowId",
          "type": "uint256"
        }
      ],
      "name": "butcherCow",
      "outputs": [],
      "stateMutability": "nonpayable",
      "type": "function"
    },
    {
      "inputs": [
        {
          "internalType": "uint256",
          "name": "cowId",
          "type": "uint256"
        }
      ],
      "name": "sellMeat",
      "outputs": [],
      "stateMutability": "nonpayable",
      "type": "function"
    }
  ],
  "bytecode": "0x608060405234801561001057600080fd5b50610183806100206000396000f3fe60806040526004361061003f5760003560e01c806303662868146100445780630dd722521461007f578063551cbd94146100ba57806399f48e89146100f5575b600080fd5b34801561005057600080fd5b5061007d6004803603602081101561006757600080fd5b8101908080359060200190929190505050610139565b005b34801561008b57600080fd5b506100b8600480360360208110156100a257600080fd5b810190808035906020019092919050505061013c565b005b3480156100c657600080fd5b506100f3600480360360208110156100dd57600080fd5b810190808035906020019092919050505061013f565b005b6101216004803603602081101561010b57600080fd5b8101908080359060200190929190505050610142565b60405180821515815260200191505060405180910390f35b50565b50565b50565b60006001905091905056fea26469706673582212203016d598274c17bd1f5c0b40753b5995aa4ef21d1abf6e4912b632b3f3f35f8e64736f6c634300060c0033",
  "immutableReferences": {},
  "source": "pragma solidity >=0.6.0;\r\n\r\ncontract Butcher {\r\n    //Fields\r\n    //address butcherAddress\r\n    //uint8 zipCode\r\n    //mapping (uint256 => Cow) meatForSale;\r\n\r\n\r\n    //Methods:\r\n    function buyCow(uint256 cowId) public {\r\n\r\n    }\r\n    function confirmTransportation(uint256) public payable returns (bool success) {\r\n        return true;\r\n    }\r\n    function butcherCow(uint256 cowId) public {\r\n\r\n    }\r\n    function sellMeat(uint256 cowId) public {\r\n\r\n    }\r\n}",
  "sourcePath": "C:/Users/samfa/Documents/BCNanodegree/project3/contracts/Butcher.sol",
  "compiler": {
    "name": "solc",
    "version": "0.6.12+commit.27d51765.Emscripten.clang"
  },
  "schemaVersion": "3.3.2",
  "updatedAt": "2020-11-30T22:17:22.289Z",
  "devdoc": {
    "kind": "dev",
    "methods": {},
    "version": 1
  },
  "userdoc": {
    "kind": "user",
    "methods": {},
    "version": 1
  }
}