{
  "contractName": "Butcher",
  "abi": [
    {
      "anonymous": false,
      "inputs": [
        {
          "indexed": false,
          "internalType": "uint256",
          "name": "cowId",
          "type": "uint256"
        }
      ],
      "name": "Butchered",
      "type": "event"
    },
    {
      "anonymous": false,
      "inputs": [
        {
          "indexed": false,
          "internalType": "string",
          "name": "message",
          "type": "string"
        }
      ],
      "name": "Eaten",
      "type": "event"
    },
    {
      "anonymous": false,
      "inputs": [
        {
          "indexed": false,
          "internalType": "uint256",
          "name": "cowId",
          "type": "uint256"
        }
      ],
      "name": "ForSale",
      "type": "event"
    },
    {
      "anonymous": false,
      "inputs": [
        {
          "indexed": false,
          "internalType": "uint256",
          "name": "cowId",
          "type": "uint256"
        }
      ],
      "name": "Raised",
      "type": "event"
    },
    {
      "anonymous": false,
      "inputs": [
        {
          "indexed": false,
          "internalType": "uint256",
          "name": "cowId",
          "type": "uint256"
        }
      ],
      "name": "Sold",
      "type": "event"
    },
    {
      "anonymous": false,
      "inputs": [
        {
          "indexed": false,
          "internalType": "uint256",
          "name": "cowId",
          "type": "uint256"
        }
      ],
      "name": "Transported",
      "type": "event"
    },
    {
      "inputs": [
        {
          "internalType": "uint256",
          "name": "",
          "type": "uint256"
        }
      ],
      "name": "cowIds",
      "outputs": [
        {
          "internalType": "uint256",
          "name": "",
          "type": "uint256"
        }
      ],
      "stateMutability": "view",
      "type": "function"
    },
    {
      "inputs": [
        {
          "internalType": "uint256",
          "name": "",
          "type": "uint256"
        }
      ],
      "name": "cows",
      "outputs": [
        {
          "internalType": "bool",
          "name": "isPaused",
          "type": "bool"
        },
        {
          "internalType": "bool",
          "name": "isMeat",
          "type": "bool"
        },
        {
          "internalType": "uint256",
          "name": "price",
          "type": "uint256"
        },
        {
          "internalType": "uint256",
          "name": "weight",
          "type": "uint256"
        },
        {
          "internalType": "uint256",
          "name": "state",
          "type": "uint256"
        },
        {
          "internalType": "uint256",
          "name": "cowId",
          "type": "uint256"
        },
        {
          "internalType": "address payable",
          "name": "farmer",
          "type": "address"
        },
        {
          "internalType": "address payable",
          "name": "butcher",
          "type": "address"
        },
        {
          "internalType": "address",
          "name": "currentLocation",
          "type": "address"
        }
      ],
      "stateMutability": "view",
      "type": "function"
    },
    {
      "inputs": [],
      "name": "getBalance",
      "outputs": [
        {
          "internalType": "uint256",
          "name": "",
          "type": "uint256"
        }
      ],
      "stateMutability": "view",
      "type": "function"
    },
    {
      "inputs": [],
      "name": "getButcher",
      "outputs": [
        {
          "internalType": "uint256",
          "name": "",
          "type": "uint256"
        }
      ],
      "stateMutability": "pure",
      "type": "function"
    },
    {
      "inputs": [],
      "name": "getButchered",
      "outputs": [
        {
          "internalType": "uint256",
          "name": "",
          "type": "uint256"
        }
      ],
      "stateMutability": "pure",
      "type": "function"
    },
    {
      "inputs": [],
      "name": "getConsumer",
      "outputs": [
        {
          "internalType": "uint256",
          "name": "",
          "type": "uint256"
        }
      ],
      "stateMutability": "pure",
      "type": "function"
    },
    {
      "inputs": [
        {
          "internalType": "uint256",
          "name": "cowId",
          "type": "uint256"
        }
      ],
      "name": "getCowButcher",
      "outputs": [
        {
          "internalType": "address",
          "name": "",
          "type": "address"
        }
      ],
      "stateMutability": "view",
      "type": "function"
    },
    {
      "inputs": [
        {
          "internalType": "uint256",
          "name": "cowId",
          "type": "uint256"
        }
      ],
      "name": "getCowButcherAddress",
      "outputs": [
        {
          "internalType": "address",
          "name": "",
          "type": "address"
        }
      ],
      "stateMutability": "view",
      "type": "function"
    },
    {
      "inputs": [
        {
          "internalType": "uint256",
          "name": "cowId",
          "type": "uint256"
        }
      ],
      "name": "getCowById",
      "outputs": [
        {
          "internalType": "bool",
          "name": "isPaused",
          "type": "bool"
        },
        {
          "internalType": "bool",
          "name": "isMeat",
          "type": "bool"
        },
        {
          "internalType": "uint256",
          "name": "price",
          "type": "uint256"
        },
        {
          "internalType": "uint256",
          "name": "weight",
          "type": "uint256"
        },
        {
          "internalType": "uint256",
          "name": "state",
          "type": "uint256"
        },
        {
          "internalType": "uint256",
          "name": "id",
          "type": "uint256"
        },
        {
          "internalType": "address payable",
          "name": "farmer",
          "type": "address"
        },
        {
          "internalType": "address payable",
          "name": "butcher",
          "type": "address"
        },
        {
          "internalType": "address",
          "name": "currentLocation",
          "type": "address"
        }
      ],
      "stateMutability": "nonpayable",
      "type": "function"
    },
    {
      "inputs": [
        {
          "internalType": "uint256",
          "name": "cowId",
          "type": "uint256"
        }
      ],
      "name": "getCowFarmerAddress",
      "outputs": [
        {
          "internalType": "address",
          "name": "",
          "type": "address"
        }
      ],
      "stateMutability": "view",
      "type": "function"
    },
    {
      "inputs": [
        {
          "internalType": "uint256",
          "name": "cowId",
          "type": "uint256"
        }
      ],
      "name": "getCowId",
      "outputs": [
        {
          "internalType": "uint256",
          "name": "",
          "type": "uint256"
        }
      ],
      "stateMutability": "view",
      "type": "function"
    },
    {
      "inputs": [
        {
          "internalType": "uint256",
          "name": "cowId",
          "type": "uint256"
        }
      ],
      "name": "getCowIsMeat",
      "outputs": [
        {
          "internalType": "bool",
          "name": "",
          "type": "bool"
        }
      ],
      "stateMutability": "view",
      "type": "function"
    },
    {
      "inputs": [
        {
          "internalType": "uint256",
          "name": "cowId",
          "type": "uint256"
        }
      ],
      "name": "getCowIsPaused",
      "outputs": [
        {
          "internalType": "bool",
          "name": "",
          "type": "bool"
        }
      ],
      "stateMutability": "view",
      "type": "function"
    },
    {
      "inputs": [
        {
          "internalType": "uint256",
          "name": "cowId",
          "type": "uint256"
        }
      ],
      "name": "getCowLocation",
      "outputs": [
        {
          "internalType": "address",
          "name": "",
          "type": "address"
        }
      ],
      "stateMutability": "view",
      "type": "function"
    },
    {
      "inputs": [
        {
          "internalType": "uint256",
          "name": "cowId",
          "type": "uint256"
        }
      ],
      "name": "getCowPrice",
      "outputs": [
        {
          "internalType": "uint256",
          "name": "",
          "type": "uint256"
        }
      ],
      "stateMutability": "view",
      "type": "function"
    },
    {
      "inputs": [
        {
          "internalType": "uint256",
          "name": "cowId",
          "type": "uint256"
        }
      ],
      "name": "getCowState",
      "outputs": [
        {
          "internalType": "uint256",
          "name": "",
          "type": "uint256"
        }
      ],
      "stateMutability": "view",
      "type": "function"
    },
    {
      "inputs": [
        {
          "internalType": "uint256",
          "name": "cowId",
          "type": "uint256"
        }
      ],
      "name": "getCowWeight",
      "outputs": [
        {
          "internalType": "uint256",
          "name": "",
          "type": "uint256"
        }
      ],
      "stateMutability": "view",
      "type": "function"
    },
    {
      "inputs": [],
      "name": "getFarmer",
      "outputs": [
        {
          "internalType": "uint256",
          "name": "",
          "type": "uint256"
        }
      ],
      "stateMutability": "pure",
      "type": "function"
    },
    {
      "inputs": [],
      "name": "getForSale",
      "outputs": [
        {
          "internalType": "uint256",
          "name": "",
          "type": "uint256"
        }
      ],
      "stateMutability": "pure",
      "type": "function"
    },
    {
      "inputs": [],
      "name": "getSenderRole",
      "outputs": [
        {
          "internalType": "uint256",
          "name": "",
          "type": "uint256"
        }
      ],
      "stateMutability": "view",
      "type": "function"
    },
    {
      "inputs": [],
      "name": "getSold",
      "outputs": [
        {
          "internalType": "uint256",
          "name": "",
          "type": "uint256"
        }
      ],
      "stateMutability": "pure",
      "type": "function"
    },
    {
      "inputs": [],
      "name": "getTransportConfirmed",
      "outputs": [
        {
          "internalType": "uint256",
          "name": "",
          "type": "uint256"
        }
      ],
      "stateMutability": "pure",
      "type": "function"
    },
    {
      "inputs": [],
      "name": "getTransported",
      "outputs": [
        {
          "internalType": "uint256",
          "name": "",
          "type": "uint256"
        }
      ],
      "stateMutability": "pure",
      "type": "function"
    },
    {
      "inputs": [
        {
          "internalType": "address",
          "name": "user",
          "type": "address"
        }
      ],
      "name": "getUserType",
      "outputs": [
        {
          "internalType": "uint256",
          "name": "",
          "type": "uint256"
        }
      ],
      "stateMutability": "view",
      "type": "function"
    },
    {
      "inputs": [
        {
          "internalType": "uint256",
          "name": "_cowId",
          "type": "uint256"
        }
      ],
      "name": "pushCowId",
      "outputs": [],
      "stateMutability": "nonpayable",
      "type": "function"
    },
    {
      "inputs": [
        {
          "internalType": "address",
          "name": "butcherAddress",
          "type": "address"
        }
      ],
      "name": "setButcher",
      "outputs": [],
      "stateMutability": "nonpayable",
      "type": "function"
    },
    {
      "inputs": [
        {
          "internalType": "address",
          "name": "consumerAddress",
          "type": "address"
        }
      ],
      "name": "setConsumer",
      "outputs": [],
      "stateMutability": "nonpayable",
      "type": "function"
    },
    {
      "inputs": [
        {
          "internalType": "uint256",
          "name": "cowId",
          "type": "uint256"
        }
      ],
      "name": "setCowButcher",
      "outputs": [],
      "stateMutability": "nonpayable",
      "type": "function"
    },
    {
      "inputs": [
        {
          "internalType": "uint256",
          "name": "cowId",
          "type": "uint256"
        }
      ],
      "name": "setCowIsMeat",
      "outputs": [],
      "stateMutability": "nonpayable",
      "type": "function"
    },
    {
      "inputs": [
        {
          "internalType": "uint256",
          "name": "cowId",
          "type": "uint256"
        },
        {
          "internalType": "uint256",
          "name": "price",
          "type": "uint256"
        }
      ],
      "name": "setCowPrice",
      "outputs": [],
      "stateMutability": "nonpayable",
      "type": "function"
    },
    {
      "inputs": [
        {
          "internalType": "uint256",
          "name": "cowId",
          "type": "uint256"
        },
        {
          "internalType": "uint256",
          "name": "state",
          "type": "uint256"
        }
      ],
      "name": "setCowState",
      "outputs": [],
      "stateMutability": "nonpayable",
      "type": "function"
    },
    {
      "inputs": [
        {
          "internalType": "uint256",
          "name": "cowId",
          "type": "uint256"
        },
        {
          "internalType": "uint256",
          "name": "weight",
          "type": "uint256"
        }
      ],
      "name": "setCowWeight",
      "outputs": [],
      "stateMutability": "nonpayable",
      "type": "function"
    },
    {
      "inputs": [
        {
          "internalType": "address",
          "name": "farmerAddress",
          "type": "address"
        }
      ],
      "name": "setFarmer",
      "outputs": [],
      "stateMutability": "nonpayable",
      "type": "function"
    },
    {
      "inputs": [
        {
          "internalType": "uint256",
          "name": "cowId",
          "type": "uint256"
        }
      ],
      "name": "buyCow",
      "outputs": [],
      "stateMutability": "nonpayable",
      "type": "function"
    },
    {
      "inputs": [
        {
          "internalType": "uint256",
          "name": "cowId",
          "type": "uint256"
        }
      ],
      "name": "confirmTransport",
      "outputs": [
        {
          "internalType": "bool",
          "name": "",
          "type": "bool"
        }
      ],
      "stateMutability": "payable",
      "type": "function"
    },
    {
      "inputs": [
        {
          "internalType": "uint256",
          "name": "cowId",
          "type": "uint256"
        }
      ],
      "name": "butcherCow",
      "outputs": [],
      "stateMutability": "nonpayable",
      "type": "function"
    },
    {
      "inputs": [
        {
          "internalType": "uint256",
          "name": "cowId",
          "type": "uint256"
        }
      ],
      "name": "sellMeat",
      "outputs": [],
      "stateMutability": "nonpayable",
      "type": "function"
    }
  ],
  "bytecode": "0x608060405234801561001057600080fd5b5061199c806100206000396000f3fe60806040526004361061021a5760003560e01c8063748a070e11610123578063a925c065116100ab578063f74bb9141161006f578063f74bb91414610ba2578063fb5f39e214610bf1578063fcd2cf7614610c40578063fd1d909214610c6b578063fe3c7d3e14610ca65761021a565b8063a925c06514610a1f578063baed329014610a84578063db7ef4c814610ad5578063e2ed781c14610b26578063efbfdd4514610b775761021a565b80638b3f863f116100f25780638b3f863f146108da5780638d6fe2bf1461093f5780638f282b871461098e5780639a90b568146109b95780639dfda794146109e45761021a565b8063748a070e146107d75780637e82e70a14610826578063804c2cf81461086b578063814a3b40146108965761021a565b80633b573e21116101a65780634a409359116101755780634a409359146106a0578063551cbd94146106db5780635f5d6e631461071657806363a579d51461075b5780636c07681f146107ac5761021a565b80633b573e21146104b85780633b928b7b1461051d5780633e4ff056146105ea5780633e8d55621461064f5761021a565b80630dd72252116101ed5780630dd722521461032f57806312065fe01461036a5780632388ec4c146103955780632cd6d05b146103c05780633a88162e1461048d5761021a565b806302d70d5e1461021f57806303662868146102645780630a5ba91b1461029f5780630d5fe8d0146102ca575b600080fd5b34801561022b57600080fd5b506102626004803603604081101561024257600080fd5b810190808035906020019092919080359060200190929190505050610cf5565b005b34801561027057600080fd5b5061029d6004803603602081101561028757600080fd5b8101908080359060200190929190505050610d14565b005b3480156102ab57600080fd5b506102b4610e6e565b6040518082815260200191505060405180910390f35b3480156102d657600080fd5b50610303600480360360208110156102ed57600080fd5b8101908080359060200190929190505050610e87565b604051808273ffffffffffffffffffffffffffffffffffffffff16815260200191505060405180910390f35b34801561033b57600080fd5b506103686004803603602081101561035257600080fd5b8101908080359060200190929190505050610ec7565b005b34801561037657600080fd5b5061037f610f9f565b6040518082815260200191505060405180910390f35b3480156103a157600080fd5b506103aa610fbe565b6040518082815260200191505060405180910390f35b3480156103cc57600080fd5b506103f9600480360360208110156103e357600080fd5b8101908080359060200190929190505050610fd1565b604051808a1515815260200189151581526020018881526020018781526020018681526020018581526020018473ffffffffffffffffffffffffffffffffffffffff1681526020018373ffffffffffffffffffffffffffffffffffffffff1681526020018273ffffffffffffffffffffffffffffffffffffffff168152602001995050505050505050505060405180910390f35b34801561049957600080fd5b506104a2611131565b6040518082815260200191505060405180910390f35b3480156104c457600080fd5b506104f1600480360360208110156104db57600080fd5b810190808035906020019092919050505061117a565b604051808273ffffffffffffffffffffffffffffffffffffffff16815260200191505060405180910390f35b34801561052957600080fd5b506105566004803603602081101561054057600080fd5b81019080803590602001909291905050506111ba565b604051808a1515815260200189151581526020018881526020018781526020018681526020018581526020018473ffffffffffffffffffffffffffffffffffffffff1681526020018373ffffffffffffffffffffffffffffffffffffffff1681526020018273ffffffffffffffffffffffffffffffffffffffff168152602001995050505050505050505060405180910390f35b3480156105f657600080fd5b506106236004803603602081101561060d57600080fd5b8101908080359060200190929190505050611282565b604051808273ffffffffffffffffffffffffffffffffffffffff16815260200191505060405180910390f35b34801561065b57600080fd5b5061069e6004803603602081101561067257600080fd5b81019080803573ffffffffffffffffffffffffffffffffffffffff1690602001909291905050506112c2565b005b3480156106ac57600080fd5b506106d9600480360360208110156106c357600080fd5b8101908080359060200190929190505050611317565b005b3480156106e757600080fd5b50610714600480360360208110156106fe57600080fd5b81019080803590602001909291905050506113ad565b005b34801561072257600080fd5b506107596004803603604081101561073957600080fd5b81019080803590602001909291908035906020019092919050505061145e565b005b34801561076757600080fd5b506107aa6004803603602081101561077e57600080fd5b81019080803573ffffffffffffffffffffffffffffffffffffffff16906020019092919050505061147d565b005b3480156107b857600080fd5b506107c16114d1565b6040518082815260200191505060405180910390f35b3480156107e357600080fd5b50610810600480360360208110156107fa57600080fd5b81019080803590602001909291905050506114e4565b6040518082815260200191505060405180910390f35b34801561083257600080fd5b506108696004803603604081101561084957600080fd5b810190808035906020019092919080359060200190929190505050611505565b005b34801561087757600080fd5b50610880611524565b6040518082815260200191505060405180910390f35b6108c2600480360360208110156108ac57600080fd5b810190808035906020019092919050505061153d565b60405180821515815260200191505060405180910390f35b3480156108e657600080fd5b50610929600480360360208110156108fd57600080fd5b81019080803573ffffffffffffffffffffffffffffffffffffffff1690602001909291905050506116c9565b6040518082815260200191505060405180910390f35b34801561094b57600080fd5b506109786004803603602081101561096257600080fd5b8101908080359060200190929190505050611714565b6040518082815260200191505060405180910390f35b34801561099a57600080fd5b506109a3611734565b6040518082815260200191505060405180910390f35b3480156109c557600080fd5b506109ce61174d565b6040518082815260200191505060405180910390f35b3480156109f057600080fd5b50610a1d60048036036020811015610a0757600080fd5b8101908080359060200190929190505050611761565b005b348015610a2b57600080fd5b50610a5860048036036020811015610a4257600080fd5b81019080803590602001909291905050506117b9565b604051808273ffffffffffffffffffffffffffffffffffffffff16815260200191505060405180910390f35b348015610a9057600080fd5b50610abd60048036036020811015610aa757600080fd5b81019080803590602001909291905050506117f9565b60405180821515815260200191505060405180910390f35b348015610ae157600080fd5b50610b0e60048036036020811015610af857600080fd5b8101908080359060200190929190505050611826565b60405180821515815260200191505060405180910390f35b348015610b3257600080fd5b50610b7560048036036020811015610b4957600080fd5b81019080803573ffffffffffffffffffffffffffffffffffffffff169060200190929190505050611853565b005b348015610b8357600080fd5b50610b8c6118a8565b6040518082815260200191505060405180910390f35b348015610bae57600080fd5b50610bdb60048036036020811015610bc557600080fd5b81019080803590602001909291905050506118c1565b6040518082815260200191505060405180910390f35b348015610bfd57600080fd5b50610c2a60048036036020811015610c1457600080fd5b81019080803590602001909291905050506118e1565b6040518082815260200191505060405180910390f35b348015610c4c57600080fd5b50610c55611901565b6040518082815260200191505060405180910390f35b348015610c7757600080fd5b50610ca460048036036020811015610c8e57600080fd5b810190808035906020019092919050505061191a565b005b348015610cb257600080fd5b50610cdf60048036036020811015610cc957600080fd5b8101908080359060200190929190505050611946565b6040518082815260200191505060405180910390f35b8060016000848152602001908152602001600020600301819055505050565b60016002811115610d2157fe5b6000803373ffffffffffffffffffffffffffffffffffffffff1673ffffffffffffffffffffffffffffffffffffffff1681526020019081526020016000206000015414610d6d57600080fd5b60046006811115610d7a57fe5b600160008381526020019081526020016000206003015414610d9b57600080fd5b600180600083815260200190815260200160002060000160016101000a81548160ff02191690831515021790555060056006811115610dd657fe5b600160008381526020019081526020016000206003018190555060006002600160008481526020019081526020016000206001015402905080600160008481526020019081526020016000206001018190555060006002600160008581526020019081526020016000206002015481610e4b57fe5b049050806001600085815260200190815260200160002060020181905550505050565b60008060036006811115610e7e57fe5b90508091505090565b60006001600083815260200190815260200160002060050160009054906101000a900473ffffffffffffffffffffffffffffffffffffffff169050919050565b60016002811115610ed457fe5b6000803373ffffffffffffffffffffffffffffffffffffffff1673ffffffffffffffffffffffffffffffffffffffff1681526020019081526020016000206000015414610f2057600080fd5b336001600083815260200190815260200160002060060160006101000a81548173ffffffffffffffffffffffffffffffffffffffff021916908373ffffffffffffffffffffffffffffffffffffffff16021790555060026006811115610f8257fe5b600160008381526020019081526020016000206003018190555050565b60003373ffffffffffffffffffffffffffffffffffffffff1631905090565b6000806002811115610fcc57fe5b905090565b6000806000806000806000806000899350600160008b815260200190815260200160002060000160009054906101000a900460ff169850600160008b815260200190815260200160002060000160019054906101000a900460ff169750600160008b8152602001908152602001600020600101549650600160008b8152602001908152602001600020600201549550600160008b8152602001908152602001600020600301549450600160008b815260200190815260200160002060050160009054906101000a900473ffffffffffffffffffffffffffffffffffffffff169250600160008b815260200190815260200160002060060160009054906101000a900473ffffffffffffffffffffffffffffffffffffffff169150600160008b815260200190815260200160002060080160009054906101000a900473ffffffffffffffffffffffffffffffffffffffff1690509193959799909294969850565b60008060003373ffffffffffffffffffffffffffffffffffffffff1673ffffffffffffffffffffffffffffffffffffffff16815260200190815260200160002060000154905090565b60006001600083815260200190815260200160002060060160009054906101000a900473ffffffffffffffffffffffffffffffffffffffff169050919050565b60016020528060005260406000206000915090508060000160009054906101000a900460ff16908060000160019054906101000a900460ff16908060010154908060020154908060030154908060040154908060050160009054906101000a900473ffffffffffffffffffffffffffffffffffffffff16908060060160009054906101000a900473ffffffffffffffffffffffffffffffffffffffff16908060080160009054906101000a900473ffffffffffffffffffffffffffffffffffffffff16905089565b60006001600083815260200190815260200160002060080160009054906101000a900473ffffffffffffffffffffffffffffffffffffffff169050919050565b600160028111156112cf57fe5b6000808373ffffffffffffffffffffffffffffffffffffffff1673ffffffffffffffffffffffffffffffffffffffff1681526020019081526020016000206000018190555050565b600115156001600083815260200190815260200160002060000160019054906101000a900460ff161515141561137b5760006001600083815260200190815260200160002060000160016101000a81548160ff0219169083151502179055506113aa565b600180600083815260200190815260200160002060000160016101000a81548160ff0219169083151502179055505b50565b600160028111156113ba57fe5b6000803373ffffffffffffffffffffffffffffffffffffffff1673ffffffffffffffffffffffffffffffffffffffff168152602001908152602001600020600001541461140657600080fd5b6005600681111561141357fe5b60016000838152602001908152602001600020600301541461143457600080fd5b6001600681111561144157fe5b600160008381526020019081526020016000206003018190555050565b8060016000848152602001908152602001600020600201819055505050565b60028081111561148957fe5b6000808373ffffffffffffffffffffffffffffffffffffffff1673ffffffffffffffffffffffffffffffffffffffff1681526020019081526020016000206000018190555050565b60006002808111156114df57fe5b905090565b600281815481106114f157fe5b906000526020600020016000915090505481565b8060016000848152602001908152602001600020600101819055505050565b6000806001600681111561153457fe5b90508091505090565b60006001600281111561154c57fe5b6000803373ffffffffffffffffffffffffffffffffffffffff1673ffffffffffffffffffffffffffffffffffffffff168152602001908152602001600020600001541461159857600080fd5b8160016000828152602001908152602001600020600201546001600083815260200190815260200160002060010154023373ffffffffffffffffffffffffffffffffffffffff163110156115eb57600080fd5b6000600160008581526020019081526020016000206001015460016000868152602001908152602001600020600201540290506001600085815260200190815260200160002060050160009054906101000a900473ffffffffffffffffffffffffffffffffffffffff1673ffffffffffffffffffffffffffffffffffffffff166108fc829081150290604051600060405180830381858888f1935050505015801561169a573d6000803e3d6000fd5b50600460068111156116a857fe5b60016000868152602001908152602001600020600301819055505050919050565b60008060008373ffffffffffffffffffffffffffffffffffffffff1673ffffffffffffffffffffffffffffffffffffffff168152602001908152602001600020600001549050919050565b600060016000838152602001908152602001600020600301549050919050565b6000806002600681111561174457fe5b90508091505090565b60006001600281111561175c57fe5b905090565b336001600083815260200190815260200160002060060160006101000a81548173ffffffffffffffffffffffffffffffffffffffff021916908373ffffffffffffffffffffffffffffffffffffffff16021790555050565b60006001600083815260200190815260200160002060060160009054906101000a900473ffffffffffffffffffffffffffffffffffffffff169050919050565b60006001600083815260200190815260200160002060000160009054906101000a900460ff169050919050565b60006001600083815260200190815260200160002060000160019054906101000a900460ff169050919050565b6000600281111561186057fe5b6000808373ffffffffffffffffffffffffffffffffffffffff1673ffffffffffffffffffffffffffffffffffffffff1681526020019081526020016000206000018190555050565b600080600560068111156118b857fe5b90508091505090565b600060016000838152602001908152602001600020600201549050919050565b600060016000838152602001908152602001600020600401549050919050565b6000806004600681111561191157fe5b90508091505090565b600281908060018154018082558091505060019003906000526020600020016000909190919091505550565b60006001600083815260200190815260200160002060010154905091905056fea2646970667358221220729ce46459aeec653ef40b2de5b5bf5cbd6c8b688591c0335a8c2a2dbd91d09064736f6c634300060c0033",
  "immutableReferences": {},
  "source": "pragma solidity >=0.6.0;\r\n\r\nimport \"./Base.sol\";\r\n\r\ncontract Butcher is Base {\r\n    //Fields\r\n    address _butcherAddress;\r\n    uint8 _zipCode;\r\n\r\n    mapping (uint256 => Cow) butcherCows;\r\n    mapping (uint256 => Cow) meatForSale;\r\n    mapping(address => string) happyConsumers;\r\n\r\n\r\n    //Methods:\r\n    function buyCow(uint256 cowId) onlyButcher public {\r\n        cows[cowId].butcher = msg.sender;\r\n        cows[cowId].state = uint(State.Sold);\r\n    }\r\n    function confirmTransport(uint256 cowId) onlyButcher enoughButcherFunds(cowId)  public payable returns (bool) {\r\n        uint256 fees = cows[cowId].weight * cows[cowId].price;\r\n        cows[cowId].farmer.transfer(fees);\r\n        cows[cowId].state = uint(State.TransportConfirmed);\r\n    }\r\n\r\n    function butcherCow(uint256 cowId) onlyButcher public {\r\n        require(cows[cowId].state == uint(State.TransportConfirmed));\r\n        \r\n        cows[cowId].isMeat = true;\r\n\r\n        cows[cowId].state = uint(State.Butchered);\r\n        \r\n        uint256 newPrice = cows[cowId].price * 2;\r\n        cows[cowId].price = newPrice;\r\n\r\n        uint256 newWeight = cows[cowId].weight / 2;\r\n        cows[cowId].weight = newWeight;\r\n    }\r\n    function sellMeat(uint256 cowId) onlyButcher public {\r\n        require(cows[cowId].state == uint(State.Butchered));\r\n        cows[cowId].state = uint(State.ForSale);\r\n    }\r\n}",
  "sourcePath": "C:/Users/samfa/Documents/BCNanodegree/project3/contracts/Butcher.sol",
  "compiler": {
    "name": "solc",
    "version": "0.6.12+commit.27d51765.Emscripten.clang"
  },
  "schemaVersion": "3.3.2",
  "updatedAt": "2020-12-15T00:17:03.225Z",
  "devdoc": {
    "kind": "dev",
    "methods": {},
    "version": 1
  },
  "userdoc": {
    "kind": "user",
    "methods": {},
    "version": 1
  }
}