{
  "contractName": "Consumer",
  "abi": [
    {
      "inputs": [
        {
          "internalType": "address",
          "name": "consumerAddress",
          "type": "address"
        }
      ],
      "stateMutability": "nonpayable",
      "type": "constructor"
    },
    {
      "anonymous": false,
      "inputs": [
        {
          "indexed": false,
          "internalType": "uint256",
          "name": "cowId",
          "type": "uint256"
        }
      ],
      "name": "Butchered",
      "type": "event"
    },
    {
      "anonymous": false,
      "inputs": [
        {
          "indexed": false,
          "internalType": "string",
          "name": "message",
          "type": "string"
        }
      ],
      "name": "Eaten",
      "type": "event"
    },
    {
      "anonymous": false,
      "inputs": [
        {
          "indexed": false,
          "internalType": "uint256",
          "name": "cowId",
          "type": "uint256"
        }
      ],
      "name": "ForSale",
      "type": "event"
    },
    {
      "anonymous": false,
      "inputs": [
        {
          "indexed": false,
          "internalType": "uint256",
          "name": "cowId",
          "type": "uint256"
        }
      ],
      "name": "Raised",
      "type": "event"
    },
    {
      "anonymous": false,
      "inputs": [
        {
          "indexed": false,
          "internalType": "uint256",
          "name": "cowId",
          "type": "uint256"
        }
      ],
      "name": "Sold",
      "type": "event"
    },
    {
      "anonymous": false,
      "inputs": [
        {
          "indexed": false,
          "internalType": "uint256",
          "name": "cowId",
          "type": "uint256"
        }
      ],
      "name": "Transported",
      "type": "event"
    },
    {
      "inputs": [
        {
          "internalType": "address",
          "name": "butcherAddress",
          "type": "address"
        }
      ],
      "name": "setButcher",
      "outputs": [],
      "stateMutability": "nonpayable",
      "type": "function"
    },
    {
      "inputs": [
        {
          "internalType": "address",
          "name": "consumerAddress",
          "type": "address"
        }
      ],
      "name": "setConsumer",
      "outputs": [],
      "stateMutability": "nonpayable",
      "type": "function"
    },
    {
      "inputs": [
        {
          "internalType": "address",
          "name": "farmerAddress",
          "type": "address"
        }
      ],
      "name": "setFarmer",
      "outputs": [],
      "stateMutability": "nonpayable",
      "type": "function"
    },
    {
      "inputs": [
        {
          "internalType": "uint256",
          "name": "cowId",
          "type": "uint256"
        },
        {
          "internalType": "uint256",
          "name": "weightPurchased",
          "type": "uint256"
        }
      ],
      "name": "buyMeat",
      "outputs": [
        {
          "internalType": "bool",
          "name": "success",
          "type": "bool"
        }
      ],
      "stateMutability": "payable",
      "type": "function"
    },
    {
      "inputs": [
        {
          "internalType": "string",
          "name": "message",
          "type": "string"
        }
      ],
      "name": "thankProducers",
      "outputs": [
        {
          "internalType": "bool",
          "name": "wasSent",
          "type": "bool"
        }
      ],
      "stateMutability": "nonpayable",
      "type": "function"
    }
  ],
  "bytecode": "0x608060405234801561001057600080fd5b506040516105ec3803806105ec8339818101604052602081101561003357600080fd5b810190808051906020019092919050505080600260006101000a81548173ffffffffffffffffffffffffffffffffffffffff021916908373ffffffffffffffffffffffffffffffffffffffff1602179055506100b6600260009054906101000a900473ffffffffffffffffffffffffffffffffffffffff166100bc60201b60201c565b5061011f565b60026000808373ffffffffffffffffffffffffffffffffffffffff1673ffffffffffffffffffffffffffffffffffffffff16815260200190815260200160002060006101000a81548160ff0219169083600281111561011757fe5b021790555050565b6104be8061012e6000396000f3fe60806040526004361061004a5760003560e01c80633e8d55621461004f578063438c4541146100a057806363a579d5146100ee5780638a1e05ca1461013f578063e2ed781c1461021d575b600080fd5b34801561005b57600080fd5b5061009e6004803603602081101561007257600080fd5b81019080803573ffffffffffffffffffffffffffffffffffffffff16906020019092919050505061026e565b005b6100d6600480360360408110156100b657600080fd5b8101908080359060200190929190803590602001909291905050506102d1565b60405180821515815260200191505060405180910390f35b3480156100fa57600080fd5b5061013d6004803603602081101561011157600080fd5b81019080803573ffffffffffffffffffffffffffffffffffffffff16906020019092919050505061034a565b005b34801561014b57600080fd5b506102056004803603602081101561016257600080fd5b810190808035906020019064010000000081111561017f57600080fd5b82018360208201111561019157600080fd5b803590602001918460018302840111640100000000831117156101b357600080fd5b91908080601f016020809104026020016040519081016040528093929190818152602001838380828437600081840152601f19601f8201169050808301925050505050505091929192905050506103ad565b60405180821515815260200191505060405180910390f35b34801561022957600080fd5b5061026c6004803603602081101561024057600080fd5b81019080803573ffffffffffffffffffffffffffffffffffffffff169060200190929190505050610425565b005b60016000808373ffffffffffffffffffffffffffffffffffffffff1673ffffffffffffffffffffffffffffffffffffffff16815260200190815260200160002060006101000a81548160ff021916908360028111156102c957fe5b021790555050565b60006002808111156102df57fe5b6000803373ffffffffffffffffffffffffffffffffffffffff1673ffffffffffffffffffffffffffffffffffffffff16815260200190815260200160002060009054906101000a900460ff16600281111561033657fe5b1461034057600080fd5b6000905092915050565b60026000808373ffffffffffffffffffffffffffffffffffffffff1673ffffffffffffffffffffffffffffffffffffffff16815260200190815260200160002060006101000a81548160ff021916908360028111156103a557fe5b021790555050565b60006002808111156103bb57fe5b6000803373ffffffffffffffffffffffffffffffffffffffff1673ffffffffffffffffffffffffffffffffffffffff16815260200190815260200160002060009054906101000a900460ff16600281111561041257fe5b1461041c57600080fd5b60009050919050565b60008060008373ffffffffffffffffffffffffffffffffffffffff1673ffffffffffffffffffffffffffffffffffffffff16815260200190815260200160002060006101000a81548160ff0219169083600281111561048057fe5b02179055505056fea264697066735822122063e43d95080417e5f642534b95e2c8cb91959b1fd1ba3a77af8013202b77b8af64736f6c634300060c0033",
  "immutableReferences": {},
  "source": "pragma solidity >=0.6.0;\r\n\r\nimport \"./Base.sol\";\r\n\r\ncontract Consumer is Base {\r\n    //Fields\r\n    address _consumerAddress;\r\n    mapping(uint256 => uint) cowsBoughtToWeight;\r\n\r\n    constructor (address consumerAddress) public {\r\n        _consumerAddress = consumerAddress;\r\n        setConsumer(_consumerAddress);\r\n    }\r\n\r\n\r\n    //Methods:\r\n    function buyMeat(uint256 cowId, uint weightPurchased) onlyConsumer payable public returns(bool success) {\r\n        return false;\r\n    }\r\n    function thankProducers(string memory message) onlyConsumer public returns (bool wasSent){\r\n        return false;\r\n    }\r\n}",
  "sourcePath": "C:/Users/samfa/Documents/BCNanodegree/project3/contracts/Consumer.sol",
  "compiler": {
    "name": "solc",
    "version": "0.6.12+commit.27d51765.Emscripten.clang"
  },
  "schemaVersion": "3.3.2",
  "updatedAt": "2020-12-01T23:31:25.375Z",
  "devdoc": {
    "kind": "dev",
    "methods": {},
    "version": 1
  },
  "userdoc": {
    "kind": "user",
    "methods": {},
    "version": 1
  }
}