{
  "contractName": "Core",
  "abi": [
    {
      "inputs": [],
      "stateMutability": "nonpayable",
      "type": "constructor"
    },
    {
      "anonymous": false,
      "inputs": [
        {
          "indexed": false,
          "internalType": "uint256",
          "name": "cowId",
          "type": "uint256"
        }
      ],
      "name": "Butchered",
      "type": "event"
    },
    {
      "anonymous": false,
      "inputs": [
        {
          "indexed": false,
          "internalType": "string",
          "name": "message",
          "type": "string"
        }
      ],
      "name": "Eaten",
      "type": "event"
    },
    {
      "anonymous": false,
      "inputs": [
        {
          "indexed": false,
          "internalType": "uint256",
          "name": "cowId",
          "type": "uint256"
        }
      ],
      "name": "ForSale",
      "type": "event"
    },
    {
      "anonymous": false,
      "inputs": [
        {
          "indexed": false,
          "internalType": "uint256",
          "name": "cowId",
          "type": "uint256"
        }
      ],
      "name": "Raised",
      "type": "event"
    },
    {
      "anonymous": false,
      "inputs": [
        {
          "indexed": false,
          "internalType": "uint256",
          "name": "cowId",
          "type": "uint256"
        }
      ],
      "name": "Sold",
      "type": "event"
    },
    {
      "anonymous": false,
      "inputs": [
        {
          "indexed": false,
          "internalType": "uint256",
          "name": "cowId",
          "type": "uint256"
        }
      ],
      "name": "Transported",
      "type": "event"
    },
    {
      "inputs": [
        {
          "internalType": "uint256",
          "name": "",
          "type": "uint256"
        }
      ],
      "name": "cowIds",
      "outputs": [
        {
          "internalType": "uint256",
          "name": "",
          "type": "uint256"
        }
      ],
      "stateMutability": "view",
      "type": "function"
    },
    {
      "inputs": [
        {
          "internalType": "uint256",
          "name": "",
          "type": "uint256"
        }
      ],
      "name": "cows",
      "outputs": [
        {
          "internalType": "bool",
          "name": "isPaused",
          "type": "bool"
        },
        {
          "internalType": "bool",
          "name": "isMeat",
          "type": "bool"
        },
        {
          "internalType": "uint256",
          "name": "price",
          "type": "uint256"
        },
        {
          "internalType": "uint256",
          "name": "weight",
          "type": "uint256"
        },
        {
          "internalType": "uint256",
          "name": "state",
          "type": "uint256"
        },
        {
          "internalType": "uint256",
          "name": "cowId",
          "type": "uint256"
        },
        {
          "internalType": "address payable",
          "name": "farmer",
          "type": "address"
        },
        {
          "internalType": "address payable",
          "name": "butcher",
          "type": "address"
        },
        {
          "internalType": "address",
          "name": "currentLocation",
          "type": "address"
        }
      ],
      "stateMutability": "view",
      "type": "function"
    },
    {
      "inputs": [],
      "name": "getBalance",
      "outputs": [
        {
          "internalType": "uint256",
          "name": "",
          "type": "uint256"
        }
      ],
      "stateMutability": "view",
      "type": "function"
    },
    {
      "inputs": [],
      "name": "getButcher",
      "outputs": [
        {
          "internalType": "uint256",
          "name": "",
          "type": "uint256"
        }
      ],
      "stateMutability": "pure",
      "type": "function"
    },
    {
      "inputs": [],
      "name": "getButchered",
      "outputs": [
        {
          "internalType": "uint256",
          "name": "",
          "type": "uint256"
        }
      ],
      "stateMutability": "pure",
      "type": "function"
    },
    {
      "inputs": [],
      "name": "getConsumer",
      "outputs": [
        {
          "internalType": "uint256",
          "name": "",
          "type": "uint256"
        }
      ],
      "stateMutability": "pure",
      "type": "function"
    },
    {
      "inputs": [
        {
          "internalType": "uint256",
          "name": "cowId",
          "type": "uint256"
        }
      ],
      "name": "getCowButcher",
      "outputs": [
        {
          "internalType": "address",
          "name": "",
          "type": "address"
        }
      ],
      "stateMutability": "view",
      "type": "function"
    },
    {
      "inputs": [
        {
          "internalType": "uint256",
          "name": "cowId",
          "type": "uint256"
        }
      ],
      "name": "getCowButcherAddress",
      "outputs": [
        {
          "internalType": "address",
          "name": "",
          "type": "address"
        }
      ],
      "stateMutability": "view",
      "type": "function"
    },
    {
      "inputs": [
        {
          "internalType": "uint256",
          "name": "cowId",
          "type": "uint256"
        }
      ],
      "name": "getCowById",
      "outputs": [
        {
          "internalType": "bool",
          "name": "isPaused",
          "type": "bool"
        },
        {
          "internalType": "bool",
          "name": "isMeat",
          "type": "bool"
        },
        {
          "internalType": "uint256",
          "name": "price",
          "type": "uint256"
        },
        {
          "internalType": "uint256",
          "name": "weight",
          "type": "uint256"
        },
        {
          "internalType": "uint256",
          "name": "state",
          "type": "uint256"
        },
        {
          "internalType": "uint256",
          "name": "id",
          "type": "uint256"
        },
        {
          "internalType": "address payable",
          "name": "farmer",
          "type": "address"
        },
        {
          "internalType": "address payable",
          "name": "butcher",
          "type": "address"
        },
        {
          "internalType": "address",
          "name": "currentLocation",
          "type": "address"
        }
      ],
      "stateMutability": "nonpayable",
      "type": "function"
    },
    {
      "inputs": [
        {
          "internalType": "uint256",
          "name": "cowId",
          "type": "uint256"
        }
      ],
      "name": "getCowFarmerAddress",
      "outputs": [
        {
          "internalType": "address",
          "name": "",
          "type": "address"
        }
      ],
      "stateMutability": "view",
      "type": "function"
    },
    {
      "inputs": [
        {
          "internalType": "uint256",
          "name": "cowId",
          "type": "uint256"
        }
      ],
      "name": "getCowId",
      "outputs": [
        {
          "internalType": "uint256",
          "name": "",
          "type": "uint256"
        }
      ],
      "stateMutability": "view",
      "type": "function"
    },
    {
      "inputs": [
        {
          "internalType": "uint256",
          "name": "cowId",
          "type": "uint256"
        }
      ],
      "name": "getCowIsMeat",
      "outputs": [
        {
          "internalType": "bool",
          "name": "",
          "type": "bool"
        }
      ],
      "stateMutability": "view",
      "type": "function"
    },
    {
      "inputs": [
        {
          "internalType": "uint256",
          "name": "cowId",
          "type": "uint256"
        }
      ],
      "name": "getCowIsPaused",
      "outputs": [
        {
          "internalType": "bool",
          "name": "",
          "type": "bool"
        }
      ],
      "stateMutability": "view",
      "type": "function"
    },
    {
      "inputs": [
        {
          "internalType": "uint256",
          "name": "cowId",
          "type": "uint256"
        }
      ],
      "name": "getCowLocation",
      "outputs": [
        {
          "internalType": "address",
          "name": "",
          "type": "address"
        }
      ],
      "stateMutability": "view",
      "type": "function"
    },
    {
      "inputs": [
        {
          "internalType": "uint256",
          "name": "cowId",
          "type": "uint256"
        }
      ],
      "name": "getCowPrice",
      "outputs": [
        {
          "internalType": "uint256",
          "name": "",
          "type": "uint256"
        }
      ],
      "stateMutability": "view",
      "type": "function"
    },
    {
      "inputs": [
        {
          "internalType": "uint256",
          "name": "cowId",
          "type": "uint256"
        }
      ],
      "name": "getCowState",
      "outputs": [
        {
          "internalType": "uint256",
          "name": "",
          "type": "uint256"
        }
      ],
      "stateMutability": "view",
      "type": "function"
    },
    {
      "inputs": [
        {
          "internalType": "uint256",
          "name": "cowId",
          "type": "uint256"
        }
      ],
      "name": "getCowWeight",
      "outputs": [
        {
          "internalType": "uint256",
          "name": "",
          "type": "uint256"
        }
      ],
      "stateMutability": "view",
      "type": "function"
    },
    {
      "inputs": [],
      "name": "getFarmer",
      "outputs": [
        {
          "internalType": "uint256",
          "name": "",
          "type": "uint256"
        }
      ],
      "stateMutability": "pure",
      "type": "function"
    },
    {
      "inputs": [],
      "name": "getForSale",
      "outputs": [
        {
          "internalType": "uint256",
          "name": "",
          "type": "uint256"
        }
      ],
      "stateMutability": "pure",
      "type": "function"
    },
    {
      "inputs": [],
      "name": "getSenderRole",
      "outputs": [
        {
          "internalType": "uint256",
          "name": "",
          "type": "uint256"
        }
      ],
      "stateMutability": "view",
      "type": "function"
    },
    {
      "inputs": [],
      "name": "getSold",
      "outputs": [
        {
          "internalType": "uint256",
          "name": "",
          "type": "uint256"
        }
      ],
      "stateMutability": "pure",
      "type": "function"
    },
    {
      "inputs": [],
      "name": "getTransportConfirmed",
      "outputs": [
        {
          "internalType": "uint256",
          "name": "",
          "type": "uint256"
        }
      ],
      "stateMutability": "pure",
      "type": "function"
    },
    {
      "inputs": [],
      "name": "getTransported",
      "outputs": [
        {
          "internalType": "uint256",
          "name": "",
          "type": "uint256"
        }
      ],
      "stateMutability": "pure",
      "type": "function"
    },
    {
      "inputs": [
        {
          "internalType": "address",
          "name": "user",
          "type": "address"
        }
      ],
      "name": "getUserType",
      "outputs": [
        {
          "internalType": "uint256",
          "name": "",
          "type": "uint256"
        }
      ],
      "stateMutability": "view",
      "type": "function"
    },
    {
      "inputs": [
        {
          "internalType": "uint256",
          "name": "_cowId",
          "type": "uint256"
        }
      ],
      "name": "pushCowId",
      "outputs": [],
      "stateMutability": "nonpayable",
      "type": "function"
    },
    {
      "inputs": [
        {
          "internalType": "address",
          "name": "butcherAddress",
          "type": "address"
        }
      ],
      "name": "setButcher",
      "outputs": [],
      "stateMutability": "nonpayable",
      "type": "function"
    },
    {
      "inputs": [
        {
          "internalType": "address",
          "name": "consumerAddress",
          "type": "address"
        }
      ],
      "name": "setConsumer",
      "outputs": [],
      "stateMutability": "nonpayable",
      "type": "function"
    },
    {
      "inputs": [
        {
          "internalType": "uint256",
          "name": "cowId",
          "type": "uint256"
        }
      ],
      "name": "setCowButcher",
      "outputs": [],
      "stateMutability": "nonpayable",
      "type": "function"
    },
    {
      "inputs": [
        {
          "internalType": "uint256",
          "name": "cowId",
          "type": "uint256"
        }
      ],
      "name": "setCowIsMeat",
      "outputs": [],
      "stateMutability": "nonpayable",
      "type": "function"
    },
    {
      "inputs": [
        {
          "internalType": "uint256",
          "name": "cowId",
          "type": "uint256"
        },
        {
          "internalType": "uint256",
          "name": "price",
          "type": "uint256"
        }
      ],
      "name": "setCowPrice",
      "outputs": [],
      "stateMutability": "nonpayable",
      "type": "function"
    },
    {
      "inputs": [
        {
          "internalType": "uint256",
          "name": "cowId",
          "type": "uint256"
        },
        {
          "internalType": "uint256",
          "name": "state",
          "type": "uint256"
        }
      ],
      "name": "setCowState",
      "outputs": [],
      "stateMutability": "nonpayable",
      "type": "function"
    },
    {
      "inputs": [
        {
          "internalType": "uint256",
          "name": "cowId",
          "type": "uint256"
        },
        {
          "internalType": "uint256",
          "name": "weight",
          "type": "uint256"
        }
      ],
      "name": "setCowWeight",
      "outputs": [],
      "stateMutability": "nonpayable",
      "type": "function"
    },
    {
      "inputs": [
        {
          "internalType": "address",
          "name": "farmerAddress",
          "type": "address"
        }
      ],
      "name": "setFarmer",
      "outputs": [],
      "stateMutability": "nonpayable",
      "type": "function"
    },
    {
      "inputs": [],
      "name": "ownable",
      "outputs": [
        {
          "internalType": "address",
          "name": "",
          "type": "address"
        }
      ],
      "stateMutability": "nonpayable",
      "type": "function"
    },
    {
      "inputs": [
        {
          "internalType": "uint256",
          "name": "cowId",
          "type": "uint256"
        }
      ],
      "name": "pause",
      "outputs": [],
      "stateMutability": "nonpayable",
      "type": "function"
    },
    {
      "inputs": [],
      "name": "getOwner",
      "outputs": [
        {
          "internalType": "address",
          "name": "",
          "type": "address"
        }
      ],
      "stateMutability": "view",
      "type": "function"
    }
  ],
  "bytecode": "0x608060405234801561001057600080fd5b5033600360006101000a81548173ffffffffffffffffffffffffffffffffffffffff021916908373ffffffffffffffffffffffffffffffffffffffff160217905550610083600360009054906101000a900473ffffffffffffffffffffffffffffffffffffffff1661008860201b60201c565b6100dd565b6000600281111561009557fe5b6000808373ffffffffffffffffffffffffffffffffffffffff1673ffffffffffffffffffffffffffffffffffffffff1681526020019081526020016000206000018190555050565b61144e806100ec6000396000f3fe608060405234801561001057600080fd5b506004361061021c5760003560e01c8063804c2cf811610125578063baed3290116100ad578063f74bb9141161007c578063f74bb914146109d9578063fb5f39e214610a1b578063fcd2cf7614610a5d578063fd1d909214610a7b578063fe3c7d3e14610aa95761021c565b8063baed3290146108ef578063db7ef4c814610933578063e2ed781c14610977578063efbfdd45146109bb5761021c565b80638f282b87116100f45780638f282b87146107f95780639a90b568146108175780639dfda79414610835578063a925c06514610863578063b38854be146108bb5761021c565b8063804c2cf81461070d578063893d20e81461072b5780638b3f863f1461075f5780638d6fe2bf146107b75761021c565b80633b928b7b116101a85780635f5d6e63116101775780635f5d6e63146105f957806363a579d5146106315780636c07681f14610675578063748a070e146106935780637e82e70a146106d55761021c565b80633b928b7b1461046f5780633e4ff0561461052f5780633e8d5562146105875780634a409359146105cb5761021c565b8063136439dd116101ef578063136439dd146102ed5780632388ec4c1461031b5780632cd6d05b146103395780633a88162e146103f95780633b573e21146104175761021c565b806302d70d5e146102215780630a5ba91b146102595780630d5fe8d01461027757806312065fe0146102cf575b600080fd5b6102576004803603604081101561023757600080fd5b810190808035906020019092919080359060200190929190505050610aeb565b005b610261610b0a565b6040518082815260200191505060405180910390f35b6102a36004803603602081101561028d57600080fd5b8101908080359060200190929190505050610b23565b604051808273ffffffffffffffffffffffffffffffffffffffff16815260200191505060405180910390f35b6102d7610b63565b6040518082815260200191505060405180910390f35b6103196004803603602081101561030357600080fd5b8101908080359060200190929190505050610b82565b005b610323610c18565b6040518082815260200191505060405180910390f35b6103656004803603602081101561034f57600080fd5b8101908080359060200190929190505050610c2b565b604051808a1515815260200189151581526020018881526020018781526020018681526020018581526020018473ffffffffffffffffffffffffffffffffffffffff1681526020018373ffffffffffffffffffffffffffffffffffffffff1681526020018273ffffffffffffffffffffffffffffffffffffffff168152602001995050505050505050505060405180910390f35b610401610d8b565b6040518082815260200191505060405180910390f35b6104436004803603602081101561042d57600080fd5b8101908080359060200190929190505050610dd4565b604051808273ffffffffffffffffffffffffffffffffffffffff16815260200191505060405180910390f35b61049b6004803603602081101561048557600080fd5b8101908080359060200190929190505050610e14565b604051808a1515815260200189151581526020018881526020018781526020018681526020018581526020018473ffffffffffffffffffffffffffffffffffffffff1681526020018373ffffffffffffffffffffffffffffffffffffffff1681526020018273ffffffffffffffffffffffffffffffffffffffff168152602001995050505050505050505060405180910390f35b61055b6004803603602081101561054557600080fd5b8101908080359060200190929190505050610edc565b604051808273ffffffffffffffffffffffffffffffffffffffff16815260200191505060405180910390f35b6105c96004803603602081101561059d57600080fd5b81019080803573ffffffffffffffffffffffffffffffffffffffff169060200190929190505050610f1c565b005b6105f7600480360360208110156105e157600080fd5b8101908080359060200190929190505050610f71565b005b61062f6004803603604081101561060f57600080fd5b810190808035906020019092919080359060200190929190505050611007565b005b6106736004803603602081101561064757600080fd5b81019080803573ffffffffffffffffffffffffffffffffffffffff169060200190929190505050611026565b005b61067d61107a565b6040518082815260200191505060405180910390f35b6106bf600480360360208110156106a957600080fd5b810190808035906020019092919050505061108d565b6040518082815260200191505060405180910390f35b61070b600480360360408110156106eb57600080fd5b8101908080359060200190929190803590602001909291905050506110ae565b005b6107156110cd565b6040518082815260200191505060405180910390f35b6107336110e6565b604051808273ffffffffffffffffffffffffffffffffffffffff16815260200191505060405180910390f35b6107a16004803603602081101561077557600080fd5b81019080803573ffffffffffffffffffffffffffffffffffffffff169060200190929190505050611110565b6040518082815260200191505060405180910390f35b6107e3600480360360208110156107cd57600080fd5b810190808035906020019092919050505061115b565b6040518082815260200191505060405180910390f35b61080161117b565b6040518082815260200191505060405180910390f35b61081f611194565b6040518082815260200191505060405180910390f35b6108616004803603602081101561084b57600080fd5b81019080803590602001909291905050506111a8565b005b61088f6004803603602081101561087957600080fd5b8101908080359060200190929190505050611200565b604051808273ffffffffffffffffffffffffffffffffffffffff16815260200191505060405180910390f35b6108c3611240565b604051808273ffffffffffffffffffffffffffffffffffffffff16815260200191505060405180910390f35b61091b6004803603602081101561090557600080fd5b81019080803590602001909291905050506112ab565b60405180821515815260200191505060405180910390f35b61095f6004803603602081101561094957600080fd5b81019080803590602001909291905050506112d8565b60405180821515815260200191505060405180910390f35b6109b96004803603602081101561098d57600080fd5b81019080803573ffffffffffffffffffffffffffffffffffffffff169060200190929190505050611305565b005b6109c361135a565b6040518082815260200191505060405180910390f35b610a05600480360360208110156109ef57600080fd5b8101908080359060200190929190505050611373565b6040518082815260200191505060405180910390f35b610a4760048036036020811015610a3157600080fd5b8101908080359060200190929190505050611393565b6040518082815260200191505060405180910390f35b610a656113b3565b6040518082815260200191505060405180910390f35b610aa760048036036020811015610a9157600080fd5b81019080803590602001909291905050506113cc565b005b610ad560048036036020811015610abf57600080fd5b81019080803590602001909291905050506113f8565b6040518082815260200191505060405180910390f35b8060016000848152602001908152602001600020600301819055505050565b60008060036006811115610b1a57fe5b90508091505090565b60006001600083815260200190815260200160002060050160009054906101000a900473ffffffffffffffffffffffffffffffffffffffff169050919050565b60003373ffffffffffffffffffffffffffffffffffffffff1631905090565b600115156001600083815260200190815260200160002060000160009054906101000a900460ff1615151415610be65760006001600083815260200190815260200160002060000160006101000a81548160ff021916908315150217905550610c15565b600180600083815260200190815260200160002060000160006101000a81548160ff0219169083151502179055505b50565b6000806002811115610c2657fe5b905090565b6000806000806000806000806000899350600160008b815260200190815260200160002060000160009054906101000a900460ff169850600160008b815260200190815260200160002060000160019054906101000a900460ff169750600160008b8152602001908152602001600020600101549650600160008b8152602001908152602001600020600201549550600160008b8152602001908152602001600020600301549450600160008b815260200190815260200160002060050160009054906101000a900473ffffffffffffffffffffffffffffffffffffffff169250600160008b815260200190815260200160002060060160009054906101000a900473ffffffffffffffffffffffffffffffffffffffff169150600160008b815260200190815260200160002060080160009054906101000a900473ffffffffffffffffffffffffffffffffffffffff1690509193959799909294969850565b60008060003373ffffffffffffffffffffffffffffffffffffffff1673ffffffffffffffffffffffffffffffffffffffff16815260200190815260200160002060000154905090565b60006001600083815260200190815260200160002060060160009054906101000a900473ffffffffffffffffffffffffffffffffffffffff169050919050565b60016020528060005260406000206000915090508060000160009054906101000a900460ff16908060000160019054906101000a900460ff16908060010154908060020154908060030154908060040154908060050160009054906101000a900473ffffffffffffffffffffffffffffffffffffffff16908060060160009054906101000a900473ffffffffffffffffffffffffffffffffffffffff16908060080160009054906101000a900473ffffffffffffffffffffffffffffffffffffffff16905089565b60006001600083815260200190815260200160002060080160009054906101000a900473ffffffffffffffffffffffffffffffffffffffff169050919050565b60016002811115610f2957fe5b6000808373ffffffffffffffffffffffffffffffffffffffff1673ffffffffffffffffffffffffffffffffffffffff1681526020019081526020016000206000018190555050565b600115156001600083815260200190815260200160002060000160019054906101000a900460ff1615151415610fd55760006001600083815260200190815260200160002060000160016101000a81548160ff021916908315150217905550611004565b600180600083815260200190815260200160002060000160016101000a81548160ff0219169083151502179055505b50565b8060016000848152602001908152602001600020600201819055505050565b60028081111561103257fe5b6000808373ffffffffffffffffffffffffffffffffffffffff1673ffffffffffffffffffffffffffffffffffffffff1681526020019081526020016000206000018190555050565b600060028081111561108857fe5b905090565b6002818154811061109a57fe5b906000526020600020016000915090505481565b8060016000848152602001908152602001600020600101819055505050565b600080600160068111156110dd57fe5b90508091505090565b6000600360009054906101000a900473ffffffffffffffffffffffffffffffffffffffff16905090565b60008060008373ffffffffffffffffffffffffffffffffffffffff1673ffffffffffffffffffffffffffffffffffffffff168152602001908152602001600020600001549050919050565b600060016000838152602001908152602001600020600301549050919050565b6000806002600681111561118b57fe5b90508091505090565b6000600160028111156111a357fe5b905090565b336001600083815260200190815260200160002060060160006101000a81548173ffffffffffffffffffffffffffffffffffffffff021916908373ffffffffffffffffffffffffffffffffffffffff16021790555050565b60006001600083815260200190815260200160002060060160009054906101000a900473ffffffffffffffffffffffffffffffffffffffff169050919050565b600033600360006101000a81548173ffffffffffffffffffffffffffffffffffffffff021916908373ffffffffffffffffffffffffffffffffffffffff160217905550600360009054906101000a900473ffffffffffffffffffffffffffffffffffffffff16905090565b60006001600083815260200190815260200160002060000160009054906101000a900460ff169050919050565b60006001600083815260200190815260200160002060000160019054906101000a900460ff169050919050565b6000600281111561131257fe5b6000808373ffffffffffffffffffffffffffffffffffffffff1673ffffffffffffffffffffffffffffffffffffffff1681526020019081526020016000206000018190555050565b6000806005600681111561136a57fe5b90508091505090565b600060016000838152602001908152602001600020600201549050919050565b600060016000838152602001908152602001600020600401549050919050565b600080600460068111156113c357fe5b90508091505090565b600281908060018154018082558091505060019003906000526020600020016000909190919091505550565b60006001600083815260200190815260200160002060010154905091905056fea2646970667358221220acaccc5cfe860344b15171be01d409c73b45f08bf635b8e2eefd2d37ebe0657564736f6c634300060c0033",
  "immutableReferences": {},
  "source": "pragma solidity >=0.6.0;\r\n\r\nimport \"./Base.sol\";\r\n\r\ncontract Core is Base {\r\n    //Fields\r\n    address _owner;\r\n\r\n    constructor() public {\r\n        _owner = msg.sender;\r\n        setFarmer(_owner);\r\n    }\r\n\r\n\r\n    //Methods:\r\n    function ownable() public returns (address) {\r\n        _owner = msg.sender;\r\n        return _owner;\r\n    }\r\n    function pause(uint256 cowId) public {\r\n        if(cows[cowId].isPaused == true) {\r\n            cows[cowId].isPaused = false;\r\n        } else {\r\n            cows[cowId].isPaused = true;\r\n        }\r\n    }\r\n\r\n    function getOwner() public view returns (address) {\r\n        return _owner;\r\n    }\r\n}",
  "sourcePath": "C:/Users/samfa/Documents/BCNanodegree/project3/contracts/Core.sol",
  "compiler": {
    "name": "solc",
    "version": "0.6.12+commit.27d51765.Emscripten.clang"
  },
  "schemaVersion": "3.3.2",
  "updatedAt": "2020-12-15T00:17:03.268Z",
  "devdoc": {
    "kind": "dev",
    "methods": {},
    "version": 1
  },
  "userdoc": {
    "kind": "user",
    "methods": {},
    "version": 1
  }
}