{
  "contractName": "Farmer",
  "abi": [
    {
      "inputs": [
        {
          "internalType": "uint256",
          "name": "cowId",
          "type": "uint256"
        }
      ],
      "name": "raiseCow",
      "outputs": [],
      "stateMutability": "nonpayable",
      "type": "function"
    },
    {
      "inputs": [
        {
          "internalType": "uint256",
          "name": "cowId",
          "type": "uint256"
        }
      ],
      "name": "putCowUpForSale",
      "outputs": [],
      "stateMutability": "nonpayable",
      "type": "function"
    },
    {
      "inputs": [
        {
          "internalType": "uint256",
          "name": "cowId",
          "type": "uint256"
        }
      ],
      "name": "transportCow",
      "outputs": [],
      "stateMutability": "nonpayable",
      "type": "function"
    }
  ],
  "bytecode": "0x608060405234801561001057600080fd5b50610101806100206000396000f3fe6080604052348015600f57600080fd5b5060043610603c5760003560e01c8063480befa8146041578063917a72cb14606c578063f8440dec146097575b600080fd5b606a60048036036020811015605557600080fd5b810190808035906020019092919050505060c2565b005b609560048036036020811015608057600080fd5b810190808035906020019092919050505060c5565b005b60c06004803603602081101560ab57600080fd5b810190808035906020019092919050505060c8565b005b50565b50565b5056fea2646970667358221220f175c82c93ea63cd1b7c9deec419a412c7453086055fcc9e314d5caff5d922cd64736f6c634300060c0033",
  "immutableReferences": {},
  "source": "pragma solidity >=0.6.0;\r\n\r\ncontract Farmer {\r\n    //Fields\r\n    address farmerAddress;\r\n    uint8 zipCode;\r\n\r\n\r\n    //Methods:\r\n    function raiseCow(uint256 cowId) public {\r\n\r\n    }\r\n    function putCowUpForSale(uint256 cowId) public {\r\n\r\n    }\r\n    function transportCow(uint256 cowId) public {\r\n\r\n    }\r\n}",
  "sourcePath": "C:/Users/samfa/Documents/BCNanodegree/project3/contracts/Farmer.sol",
  "compiler": {
    "name": "solc",
    "version": "0.6.12+commit.27d51765.Emscripten.clang"
  },
  "schemaVersion": "3.3.2",
  "updatedAt": "2020-11-30T22:54:03.370Z",
  "devdoc": {
    "kind": "dev",
    "methods": {},
    "version": 1
  },
  "userdoc": {
    "kind": "user",
    "methods": {},
    "version": 1
  }
}