{
  "contractName": "Farmer",
  "abi": [
    {
      "anonymous": false,
      "inputs": [
        {
          "indexed": false,
          "internalType": "uint256",
          "name": "cowId",
          "type": "uint256"
        }
      ],
      "name": "Butchered",
      "type": "event"
    },
    {
      "anonymous": false,
      "inputs": [
        {
          "indexed": false,
          "internalType": "string",
          "name": "message",
          "type": "string"
        }
      ],
      "name": "Eaten",
      "type": "event"
    },
    {
      "anonymous": false,
      "inputs": [
        {
          "indexed": false,
          "internalType": "uint256",
          "name": "cowId",
          "type": "uint256"
        }
      ],
      "name": "ForSale",
      "type": "event"
    },
    {
      "anonymous": false,
      "inputs": [
        {
          "indexed": false,
          "internalType": "uint256",
          "name": "cowId",
          "type": "uint256"
        }
      ],
      "name": "Raised",
      "type": "event"
    },
    {
      "anonymous": false,
      "inputs": [
        {
          "indexed": false,
          "internalType": "uint256",
          "name": "cowId",
          "type": "uint256"
        }
      ],
      "name": "Sold",
      "type": "event"
    },
    {
      "anonymous": false,
      "inputs": [
        {
          "indexed": false,
          "internalType": "uint256",
          "name": "cowId",
          "type": "uint256"
        }
      ],
      "name": "Transported",
      "type": "event"
    },
    {
      "inputs": [
        {
          "internalType": "uint256",
          "name": "",
          "type": "uint256"
        }
      ],
      "name": "cowIds",
      "outputs": [
        {
          "internalType": "uint256",
          "name": "",
          "type": "uint256"
        }
      ],
      "stateMutability": "view",
      "type": "function"
    },
    {
      "inputs": [
        {
          "internalType": "uint256",
          "name": "",
          "type": "uint256"
        }
      ],
      "name": "cows",
      "outputs": [
        {
          "internalType": "bool",
          "name": "isPaused",
          "type": "bool"
        },
        {
          "internalType": "bool",
          "name": "isMeat",
          "type": "bool"
        },
        {
          "internalType": "uint256",
          "name": "price",
          "type": "uint256"
        },
        {
          "internalType": "uint256",
          "name": "weight",
          "type": "uint256"
        },
        {
          "internalType": "uint256",
          "name": "state",
          "type": "uint256"
        },
        {
          "internalType": "uint256",
          "name": "cowId",
          "type": "uint256"
        },
        {
          "internalType": "address payable",
          "name": "farmer",
          "type": "address"
        },
        {
          "internalType": "address payable",
          "name": "butcher",
          "type": "address"
        },
        {
          "internalType": "address",
          "name": "currentLocation",
          "type": "address"
        }
      ],
      "stateMutability": "view",
      "type": "function"
    },
    {
      "inputs": [],
      "name": "getBalance",
      "outputs": [
        {
          "internalType": "uint256",
          "name": "",
          "type": "uint256"
        }
      ],
      "stateMutability": "view",
      "type": "function"
    },
    {
      "inputs": [],
      "name": "getButcher",
      "outputs": [
        {
          "internalType": "uint256",
          "name": "",
          "type": "uint256"
        }
      ],
      "stateMutability": "pure",
      "type": "function"
    },
    {
      "inputs": [],
      "name": "getButchered",
      "outputs": [
        {
          "internalType": "uint256",
          "name": "",
          "type": "uint256"
        }
      ],
      "stateMutability": "pure",
      "type": "function"
    },
    {
      "inputs": [],
      "name": "getConsumer",
      "outputs": [
        {
          "internalType": "uint256",
          "name": "",
          "type": "uint256"
        }
      ],
      "stateMutability": "pure",
      "type": "function"
    },
    {
      "inputs": [
        {
          "internalType": "uint256",
          "name": "cowId",
          "type": "uint256"
        }
      ],
      "name": "getCowButcher",
      "outputs": [
        {
          "internalType": "address",
          "name": "",
          "type": "address"
        }
      ],
      "stateMutability": "view",
      "type": "function"
    },
    {
      "inputs": [
        {
          "internalType": "uint256",
          "name": "cowId",
          "type": "uint256"
        }
      ],
      "name": "getCowButcherAddress",
      "outputs": [
        {
          "internalType": "address",
          "name": "",
          "type": "address"
        }
      ],
      "stateMutability": "view",
      "type": "function"
    },
    {
      "inputs": [
        {
          "internalType": "uint256",
          "name": "cowId",
          "type": "uint256"
        }
      ],
      "name": "getCowById",
      "outputs": [
        {
          "internalType": "bool",
          "name": "isPaused",
          "type": "bool"
        },
        {
          "internalType": "bool",
          "name": "isMeat",
          "type": "bool"
        },
        {
          "internalType": "uint256",
          "name": "price",
          "type": "uint256"
        },
        {
          "internalType": "uint256",
          "name": "weight",
          "type": "uint256"
        },
        {
          "internalType": "uint256",
          "name": "state",
          "type": "uint256"
        },
        {
          "internalType": "uint256",
          "name": "id",
          "type": "uint256"
        },
        {
          "internalType": "address payable",
          "name": "farmer",
          "type": "address"
        },
        {
          "internalType": "address payable",
          "name": "butcher",
          "type": "address"
        },
        {
          "internalType": "address",
          "name": "currentLocation",
          "type": "address"
        }
      ],
      "stateMutability": "nonpayable",
      "type": "function"
    },
    {
      "inputs": [
        {
          "internalType": "uint256",
          "name": "cowId",
          "type": "uint256"
        }
      ],
      "name": "getCowFarmerAddress",
      "outputs": [
        {
          "internalType": "address",
          "name": "",
          "type": "address"
        }
      ],
      "stateMutability": "view",
      "type": "function"
    },
    {
      "inputs": [
        {
          "internalType": "uint256",
          "name": "cowId",
          "type": "uint256"
        }
      ],
      "name": "getCowId",
      "outputs": [
        {
          "internalType": "uint256",
          "name": "",
          "type": "uint256"
        }
      ],
      "stateMutability": "view",
      "type": "function"
    },
    {
      "inputs": [
        {
          "internalType": "uint256",
          "name": "cowId",
          "type": "uint256"
        }
      ],
      "name": "getCowIsMeat",
      "outputs": [
        {
          "internalType": "bool",
          "name": "",
          "type": "bool"
        }
      ],
      "stateMutability": "view",
      "type": "function"
    },
    {
      "inputs": [
        {
          "internalType": "uint256",
          "name": "cowId",
          "type": "uint256"
        }
      ],
      "name": "getCowIsPaused",
      "outputs": [
        {
          "internalType": "bool",
          "name": "",
          "type": "bool"
        }
      ],
      "stateMutability": "view",
      "type": "function"
    },
    {
      "inputs": [
        {
          "internalType": "uint256",
          "name": "cowId",
          "type": "uint256"
        }
      ],
      "name": "getCowLocation",
      "outputs": [
        {
          "internalType": "address",
          "name": "",
          "type": "address"
        }
      ],
      "stateMutability": "view",
      "type": "function"
    },
    {
      "inputs": [
        {
          "internalType": "uint256",
          "name": "cowId",
          "type": "uint256"
        }
      ],
      "name": "getCowPrice",
      "outputs": [
        {
          "internalType": "uint256",
          "name": "",
          "type": "uint256"
        }
      ],
      "stateMutability": "view",
      "type": "function"
    },
    {
      "inputs": [
        {
          "internalType": "uint256",
          "name": "cowId",
          "type": "uint256"
        }
      ],
      "name": "getCowState",
      "outputs": [
        {
          "internalType": "uint256",
          "name": "",
          "type": "uint256"
        }
      ],
      "stateMutability": "view",
      "type": "function"
    },
    {
      "inputs": [
        {
          "internalType": "uint256",
          "name": "cowId",
          "type": "uint256"
        }
      ],
      "name": "getCowWeight",
      "outputs": [
        {
          "internalType": "uint256",
          "name": "",
          "type": "uint256"
        }
      ],
      "stateMutability": "view",
      "type": "function"
    },
    {
      "inputs": [],
      "name": "getFarmer",
      "outputs": [
        {
          "internalType": "uint256",
          "name": "",
          "type": "uint256"
        }
      ],
      "stateMutability": "pure",
      "type": "function"
    },
    {
      "inputs": [],
      "name": "getForSale",
      "outputs": [
        {
          "internalType": "uint256",
          "name": "",
          "type": "uint256"
        }
      ],
      "stateMutability": "pure",
      "type": "function"
    },
    {
      "inputs": [],
      "name": "getSenderRole",
      "outputs": [
        {
          "internalType": "uint256",
          "name": "",
          "type": "uint256"
        }
      ],
      "stateMutability": "view",
      "type": "function"
    },
    {
      "inputs": [],
      "name": "getSold",
      "outputs": [
        {
          "internalType": "uint256",
          "name": "",
          "type": "uint256"
        }
      ],
      "stateMutability": "pure",
      "type": "function"
    },
    {
      "inputs": [],
      "name": "getTransportConfirmed",
      "outputs": [
        {
          "internalType": "uint256",
          "name": "",
          "type": "uint256"
        }
      ],
      "stateMutability": "pure",
      "type": "function"
    },
    {
      "inputs": [],
      "name": "getTransported",
      "outputs": [
        {
          "internalType": "uint256",
          "name": "",
          "type": "uint256"
        }
      ],
      "stateMutability": "pure",
      "type": "function"
    },
    {
      "inputs": [
        {
          "internalType": "address",
          "name": "user",
          "type": "address"
        }
      ],
      "name": "getUserType",
      "outputs": [
        {
          "internalType": "uint256",
          "name": "",
          "type": "uint256"
        }
      ],
      "stateMutability": "view",
      "type": "function"
    },
    {
      "inputs": [
        {
          "internalType": "uint256",
          "name": "_cowId",
          "type": "uint256"
        }
      ],
      "name": "pushCowId",
      "outputs": [],
      "stateMutability": "nonpayable",
      "type": "function"
    },
    {
      "inputs": [
        {
          "internalType": "address",
          "name": "butcherAddress",
          "type": "address"
        }
      ],
      "name": "setButcher",
      "outputs": [],
      "stateMutability": "nonpayable",
      "type": "function"
    },
    {
      "inputs": [
        {
          "internalType": "address",
          "name": "consumerAddress",
          "type": "address"
        }
      ],
      "name": "setConsumer",
      "outputs": [],
      "stateMutability": "nonpayable",
      "type": "function"
    },
    {
      "inputs": [
        {
          "internalType": "uint256",
          "name": "cowId",
          "type": "uint256"
        }
      ],
      "name": "setCowButcher",
      "outputs": [],
      "stateMutability": "nonpayable",
      "type": "function"
    },
    {
      "inputs": [
        {
          "internalType": "uint256",
          "name": "cowId",
          "type": "uint256"
        }
      ],
      "name": "setCowIsMeat",
      "outputs": [],
      "stateMutability": "nonpayable",
      "type": "function"
    },
    {
      "inputs": [
        {
          "internalType": "uint256",
          "name": "cowId",
          "type": "uint256"
        },
        {
          "internalType": "uint256",
          "name": "price",
          "type": "uint256"
        }
      ],
      "name": "setCowPrice",
      "outputs": [],
      "stateMutability": "nonpayable",
      "type": "function"
    },
    {
      "inputs": [
        {
          "internalType": "uint256",
          "name": "cowId",
          "type": "uint256"
        },
        {
          "internalType": "uint256",
          "name": "state",
          "type": "uint256"
        }
      ],
      "name": "setCowState",
      "outputs": [],
      "stateMutability": "nonpayable",
      "type": "function"
    },
    {
      "inputs": [
        {
          "internalType": "uint256",
          "name": "cowId",
          "type": "uint256"
        },
        {
          "internalType": "uint256",
          "name": "weight",
          "type": "uint256"
        }
      ],
      "name": "setCowWeight",
      "outputs": [],
      "stateMutability": "nonpayable",
      "type": "function"
    },
    {
      "inputs": [
        {
          "internalType": "address",
          "name": "farmerAddress",
          "type": "address"
        }
      ],
      "name": "setFarmer",
      "outputs": [],
      "stateMutability": "nonpayable",
      "type": "function"
    },
    {
      "inputs": [
        {
          "internalType": "uint256",
          "name": "_cowId",
          "type": "uint256"
        }
      ],
      "name": "raiseCow",
      "outputs": [],
      "stateMutability": "nonpayable",
      "type": "function"
    },
    {
      "inputs": [
        {
          "internalType": "uint256",
          "name": "cowId",
          "type": "uint256"
        },
        {
          "internalType": "uint256",
          "name": "price",
          "type": "uint256"
        }
      ],
      "name": "putCowUpForSale",
      "outputs": [],
      "stateMutability": "nonpayable",
      "type": "function"
    },
    {
      "inputs": [
        {
          "internalType": "uint256",
          "name": "cowId",
          "type": "uint256"
        }
      ],
      "name": "transportCow",
      "outputs": [],
      "stateMutability": "nonpayable",
      "type": "function"
    }
  ],
  "bytecode": "0x608060405234801561001057600080fd5b506118d9806100206000396000f3fe608060405234801561001057600080fd5b506004361061021c5760003560e01c80637e82e70a11610125578063db7ef4c8116100ad578063f8440dec1161007c578063f8440dec146109eb578063fb5f39e214610a19578063fcd2cf7614610a5b578063fd1d909214610a79578063fe3c7d3e14610aa75761021c565b8063db7ef4c814610903578063e2ed781c14610947578063efbfdd451461098b578063f74bb914146109a95761021c565b80638f282b87116100f45780638f282b87146107fd5780639a90b5681461081b5780639dfda79414610839578063a925c06514610867578063baed3290146108bf5761021c565b80637e82e70a1461070d578063804c2cf8146107455780638b3f863f146107635780638d6fe2bf146107bb5761021c565b80633e4ff056116101a85780635f5d6e63116101775780635f5d6e63146105f957806363a579d5146106315780636bbf1610146106755780636c07681f146106ad578063748a070e146106cb5761021c565b80633e4ff056146105015780633e8d556214610559578063480befa81461059d5780634a409359146105cb5761021c565b80632388ec4c116101ef5780632388ec4c146102ed5780632cd6d05b1461030b5780633a88162e146103cb5780633b573e21146103e95780633b928b7b146104415761021c565b806302d70d5e146102215780630a5ba91b146102595780630d5fe8d01461027757806312065fe0146102cf575b600080fd5b6102576004803603604081101561023757600080fd5b810190808035906020019092919080359060200190929190505050610ae9565b005b610261610b08565b6040518082815260200191505060405180910390f35b6102a36004803603602081101561028d57600080fd5b8101908080359060200190929190505050610b21565b604051808273ffffffffffffffffffffffffffffffffffffffff16815260200191505060405180910390f35b6102d7610b61565b6040518082815260200191505060405180910390f35b6102f5610b80565b6040518082815260200191505060405180910390f35b6103376004803603602081101561032157600080fd5b8101908080359060200190929190505050610b93565b604051808a1515815260200189151581526020018881526020018781526020018681526020018581526020018473ffffffffffffffffffffffffffffffffffffffff1681526020018373ffffffffffffffffffffffffffffffffffffffff1681526020018273ffffffffffffffffffffffffffffffffffffffff168152602001995050505050505050505060405180910390f35b6103d3610cf3565b6040518082815260200191505060405180910390f35b610415600480360360208110156103ff57600080fd5b8101908080359060200190929190505050610d3c565b604051808273ffffffffffffffffffffffffffffffffffffffff16815260200191505060405180910390f35b61046d6004803603602081101561045757600080fd5b8101908080359060200190929190505050610d7c565b604051808a1515815260200189151581526020018881526020018781526020018681526020018581526020018473ffffffffffffffffffffffffffffffffffffffff1681526020018373ffffffffffffffffffffffffffffffffffffffff1681526020018273ffffffffffffffffffffffffffffffffffffffff168152602001995050505050505050505060405180910390f35b61052d6004803603602081101561051757600080fd5b8101908080359060200190929190505050610e44565b604051808273ffffffffffffffffffffffffffffffffffffffff16815260200191505060405180910390f35b61059b6004803603602081101561056f57600080fd5b81019080803573ffffffffffffffffffffffffffffffffffffffff169060200190929190505050610e84565b005b6105c9600480360360208110156105b357600080fd5b8101908080359060200190929190505050610ed9565b005b6105f7600480360360208110156105e157600080fd5b8101908080359060200190929190505050610f8e565b005b61062f6004803603604081101561060f57600080fd5b810190808035906020019092919080359060200190929190505050611024565b005b6106736004803603602081101561064757600080fd5b81019080803573ffffffffffffffffffffffffffffffffffffffff169060200190929190505050611043565b005b6106ab6004803603604081101561068b57600080fd5b810190808035906020019092919080359060200190929190505050611097565b005b6106b5611136565b6040518082815260200191505060405180910390f35b6106f7600480360360208110156106e157600080fd5b8101908080359060200190929190505050611149565b6040518082815260200191505060405180910390f35b6107436004803603604081101561072357600080fd5b81019080803590602001909291908035906020019092919050505061116a565b005b61074d611189565b6040518082815260200191505060405180910390f35b6107a56004803603602081101561077957600080fd5b81019080803573ffffffffffffffffffffffffffffffffffffffff1690602001909291905050506111a2565b6040518082815260200191505060405180910390f35b6107e7600480360360208110156107d157600080fd5b81019080803590602001909291905050506111ed565b6040518082815260200191505060405180910390f35b61080561120d565b6040518082815260200191505060405180910390f35b610823611226565b6040518082815260200191505060405180910390f35b6108656004803603602081101561084f57600080fd5b810190808035906020019092919050505061123a565b005b6108936004803603602081101561087d57600080fd5b8101908080359060200190929190505050611292565b604051808273ffffffffffffffffffffffffffffffffffffffff16815260200191505060405180910390f35b6108eb600480360360208110156108d557600080fd5b81019080803590602001909291905050506112d2565b60405180821515815260200191505060405180910390f35b61092f6004803603602081101561091957600080fd5b81019080803590602001909291905050506112ff565b60405180821515815260200191505060405180910390f35b6109896004803603602081101561095d57600080fd5b81019080803573ffffffffffffffffffffffffffffffffffffffff16906020019092919050505061132c565b005b610993611381565b6040518082815260200191505060405180910390f35b6109d5600480360360208110156109bf57600080fd5b810190808035906020019092919050505061139a565b6040518082815260200191505060405180910390f35b610a1760048036036020811015610a0157600080fd5b81019080803590602001909291905050506113ba565b005b610a4560048036036020811015610a2f57600080fd5b8101908080359060200190929190505050611791565b6040518082815260200191505060405180910390f35b610a636117b1565b6040518082815260200191505060405180910390f35b610aa560048036036020811015610a8f57600080fd5b81019080803590602001909291905050506117ca565b005b610ad360048036036020811015610abd57600080fd5b81019080803590602001909291905050506117f6565b6040518082815260200191505060405180910390f35b8060016000848152602001908152602001600020600301819055505050565b60008060036006811115610b1857fe5b90508091505090565b60006001600083815260200190815260200160002060050160009054906101000a900473ffffffffffffffffffffffffffffffffffffffff169050919050565b60003373ffffffffffffffffffffffffffffffffffffffff1631905090565b6000806002811115610b8e57fe5b905090565b6000806000806000806000806000899350600160008b815260200190815260200160002060000160009054906101000a900460ff169850600160008b815260200190815260200160002060000160019054906101000a900460ff169750600160008b8152602001908152602001600020600101549650600160008b8152602001908152602001600020600201549550600160008b8152602001908152602001600020600301549450600160008b815260200190815260200160002060050160009054906101000a900473ffffffffffffffffffffffffffffffffffffffff169250600160008b815260200190815260200160002060060160009054906101000a900473ffffffffffffffffffffffffffffffffffffffff169150600160008b815260200190815260200160002060080160009054906101000a900473ffffffffffffffffffffffffffffffffffffffff1690509193959799909294969850565b60008060003373ffffffffffffffffffffffffffffffffffffffff1673ffffffffffffffffffffffffffffffffffffffff16815260200190815260200160002060000154905090565b60006001600083815260200190815260200160002060060160009054906101000a900473ffffffffffffffffffffffffffffffffffffffff169050919050565b60016020528060005260406000206000915090508060000160009054906101000a900460ff16908060000160019054906101000a900460ff16908060010154908060020154908060030154908060040154908060050160009054906101000a900473ffffffffffffffffffffffffffffffffffffffff16908060060160009054906101000a900473ffffffffffffffffffffffffffffffffffffffff16908060080160009054906101000a900473ffffffffffffffffffffffffffffffffffffffff16905089565b60006001600083815260200190815260200160002060080160009054906101000a900473ffffffffffffffffffffffffffffffffffffffff169050919050565b60016002811115610e9157fe5b6000808373ffffffffffffffffffffffffffffffffffffffff1673ffffffffffffffffffffffffffffffffffffffff1681526020019081526020016000206000018190555050565b60036006811115610ee657fe5b60016000838152602001908152602001600020600301819055506001600082815260200190815260200160002060060160009054906101000a900473ffffffffffffffffffffffffffffffffffffffff166001600083815260200190815260200160002060080160006101000a81548173ffffffffffffffffffffffffffffffffffffffff021916908373ffffffffffffffffffffffffffffffffffffffff16021790555050565b600115156001600083815260200190815260200160002060000160019054906101000a900460ff1615151415610ff25760006001600083815260200190815260200160002060000160016101000a81548160ff021916908315150217905550611021565b600180600083815260200190815260200160002060000160016101000a81548160ff0219169083151502179055505b50565b8060016000848152602001908152602001600020600201819055505050565b60028081111561104f57fe5b6000808373ffffffffffffffffffffffffffffffffffffffff1673ffffffffffffffffffffffffffffffffffffffff1681526020019081526020016000206000018190555050565b600060028111156110a457fe5b6000803373ffffffffffffffffffffffffffffffffffffffff1673ffffffffffffffffffffffffffffffffffffffff16815260200190815260200160002060000154146110f057600080fd5b600160068111156110fd57fe5b60016000848152602001908152602001600020600301819055508060016000848152602001908152602001600020600101819055505050565b600060028081111561114457fe5b905090565b6002818154811061115657fe5b906000526020600020016000915090505481565b8060016000848152602001908152602001600020600101819055505050565b6000806001600681111561119957fe5b90508091505090565b60008060008373ffffffffffffffffffffffffffffffffffffffff1673ffffffffffffffffffffffffffffffffffffffff168152602001908152602001600020600001549050919050565b600060016000838152602001908152602001600020600301549050919050565b6000806002600681111561121d57fe5b90508091505090565b60006001600281111561123557fe5b905090565b336001600083815260200190815260200160002060060160006101000a81548173ffffffffffffffffffffffffffffffffffffffff021916908373ffffffffffffffffffffffffffffffffffffffff16021790555050565b60006001600083815260200190815260200160002060060160009054906101000a900473ffffffffffffffffffffffffffffffffffffffff169050919050565b60006001600083815260200190815260200160002060000160009054906101000a900460ff169050919050565b60006001600083815260200190815260200160002060000160019054906101000a900460ff169050919050565b6000600281111561133957fe5b6000808373ffffffffffffffffffffffffffffffffffffffff1673ffffffffffffffffffffffffffffffffffffffff1681526020019081526020016000206000018190555050565b6000806005600681111561139157fe5b90508091505090565b600060016000838152602001908152602001600020600201549050919050565b600060028111156113c757fe5b6000803373ffffffffffffffffffffffffffffffffffffffff1673ffffffffffffffffffffffffffffffffffffffff168152602001908152602001600020600001541461141357600080fd5b60006001600083815260200190815260200160002060000160016101000a81548160ff02191690831515021790555060006001600083815260200190815260200160002060000160006101000a81548160ff0219169083151502179055506000600681111561147e57fe5b6001600083815260200190815260200160002060030181905550806001600083815260200190815260200160002060040181905550806001600083815260200190815260200160002060020181905550336001600083815260200190815260200160002060050160006101000a81548173ffffffffffffffffffffffffffffffffffffffff021916908373ffffffffffffffffffffffffffffffffffffffff160217905550336001600083815260200190815260200160002060080160006101000a81548173ffffffffffffffffffffffffffffffffffffffff021916908373ffffffffffffffffffffffffffffffffffffffff1602179055506001600082815260200190815260200160002060046000600160008581526020019081526020016000206004015481526020019081526020016000206000820160009054906101000a900460ff168160000160006101000a81548160ff0219169083151502179055506000820160019054906101000a900460ff168160000160016101000a81548160ff021916908315150217905550600182015481600101556002820154816002015560038201548160030155600482015481600401556005820160009054906101000a900473ffffffffffffffffffffffffffffffffffffffff168160050160006101000a81548173ffffffffffffffffffffffffffffffffffffffff021916908373ffffffffffffffffffffffffffffffffffffffff1602179055506006820160009054906101000a900473ffffffffffffffffffffffffffffffffffffffff168160060160006101000a81548173ffffffffffffffffffffffffffffffffffffffff021916908373ffffffffffffffffffffffffffffffffffffffff160217905550600782018160070190805461171a929190611816565b506008820160009054906101000a900473ffffffffffffffffffffffffffffffffffffffff168160080160006101000a81548173ffffffffffffffffffffffffffffffffffffffff021916908373ffffffffffffffffffffffffffffffffffffffff16021790555090505061178e816117ca565b50565b600060016000838152602001908152602001600020600401549050919050565b600080600460068111156117c157fe5b90508091505090565b600281908060018154018082558091505060019003906000526020600020016000909190919091505550565b600060016000838152602001908152602001600020600101549050919050565b8280548282559060005260206000209081019282156118575760005260206000209182015b8281111561185657825482559160010191906001019061183b565b5b5090506118649190611868565b5090565b5b8082111561189f57600081816101000a81549073ffffffffffffffffffffffffffffffffffffffff021916905550600101611869565b509056fea2646970667358221220e84ac9ccff76322cadb1a715211d954facfa7b9d469afa4c115f28481e05265b64736f6c634300060c0033",
  "immutableReferences": {},
  "source": "pragma solidity >=0.6.0;\r\n\r\nimport \"./Base.sol\";\r\n\r\ncontract Farmer is Base {\r\n    //Fields\r\n    address farmerAddress;\r\n    uint8 zipCode;\r\n    mapping(uint256 => Cow) farmerCows;\r\n    mapping(address => string) happyConsumers;\r\n\r\n    //Methods:\r\n    function raiseCow(uint256 _cowId) onlyFarmer public {\r\n        cows[_cowId].isMeat = false;\r\n        cows[_cowId].isPaused = false;\r\n        cows[_cowId].state = uint(State.Raised);\r\n        cows[_cowId].cowId = _cowId;\r\n        cows[_cowId].weight = _cowId;\r\n        cows[_cowId].farmer = msg.sender;\r\n        cows[_cowId].currentLocation = msg.sender;\r\n        farmerCows[cows[_cowId].cowId] = cows[_cowId];\r\n        pushCowId(_cowId);\r\n    }\r\n    \r\n    function putCowUpForSale(uint256 cowId, uint256 price) onlyFarmer public {\r\n        cows[cowId].state = uint(State.ForSale);\r\n        cows[cowId].price = price;\r\n    }\r\n    function transportCow(uint256 cowId) public {\r\n        cows[cowId].state = uint(State.Transported);\r\n        cows[cowId].currentLocation = cows[cowId].butcher;\r\n    }\r\n}",
  "sourcePath": "C:/Users/samfa/Documents/BCNanodegree/project3/contracts/Farmer.sol",
  "compiler": {
    "name": "solc",
    "version": "0.6.12+commit.27d51765.Emscripten.clang"
  },
  "schemaVersion": "3.3.2",
  "updatedAt": "2020-12-15T00:17:03.282Z",
  "devdoc": {
    "kind": "dev",
    "methods": {},
    "version": 1
  },
  "userdoc": {
    "kind": "user",
    "methods": {},
    "version": 1
  }
}